{
  "contracts/FarmToken.sol": {
    "FarmToken": {
      "abi": [
        {
          "inputs": [
            {
              "internalType": "address",
              "name": "initialOwner",
              "type": "address"
            }
          ],
          "stateMutability": "nonpayable",
          "type": "constructor"
        },
        {
          "inputs": [
            {
              "internalType": "uint256",
              "name": "requested",
              "type": "uint256"
            },
            {
              "internalType": "uint256",
              "name": "remaining",
              "type": "uint256"
            }
          ],
          "name": "AnnualCapExceeded",
          "type": "error"
        },
        {
          "inputs": [
            {
              "internalType": "uint256",
              "name": "tosLen",
              "type": "uint256"
            },
            {
              "internalType": "uint256",
              "name": "amountsLen",
              "type": "uint256"
            }
          ],
          "name": "ArrayLengthMismatch",
          "type": "error"
        },
        {
          "inputs": [
            {
              "internalType": "uint256",
              "name": "length",
              "type": "uint256"
            },
            {
              "internalType": "uint256",
              "name": "max",
              "type": "uint256"
            }
          ],
          "name": "BatchTooLarge",
          "type": "error"
        },
        {
          "inputs": [
            {
              "internalType": "address",
              "name": "spender",
              "type": "address"
            },
            {
              "internalType": "uint256",
              "name": "allowance",
              "type": "uint256"
            },
            {
              "internalType": "uint256",
              "name": "needed",
              "type": "uint256"
            }
          ],
          "name": "ERC20InsufficientAllowance",
          "type": "error"
        },
        {
          "inputs": [
            {
              "internalType": "address",
              "name": "sender",
              "type": "address"
            },
            {
              "internalType": "uint256",
              "name": "balance",
              "type": "uint256"
            },
            {
              "internalType": "uint256",
              "name": "needed",
              "type": "uint256"
            }
          ],
          "name": "ERC20InsufficientBalance",
          "type": "error"
        },
        {
          "inputs": [
            {
              "internalType": "address",
              "name": "approver",
              "type": "address"
            }
          ],
          "name": "ERC20InvalidApprover",
          "type": "error"
        },
        {
          "inputs": [
            {
              "internalType": "address",
              "name": "receiver",
              "type": "address"
            }
          ],
          "name": "ERC20InvalidReceiver",
          "type": "error"
        },
        {
          "inputs": [
            {
              "internalType": "address",
              "name": "sender",
              "type": "address"
            }
          ],
          "name": "ERC20InvalidSender",
          "type": "error"
        },
        {
          "inputs": [
            {
              "internalType": "address",
              "name": "spender",
              "type": "address"
            }
          ],
          "name": "ERC20InvalidSpender",
          "type": "error"
        },
        {
          "inputs": [],
          "name": "EmptyBatch",
          "type": "error"
        },
        {
          "inputs": [],
          "name": "EnforcedPause",
          "type": "error"
        },
        {
          "inputs": [],
          "name": "ExpectedPause",
          "type": "error"
        },
        {
          "inputs": [],
          "name": "InvalidMinterAddress",
          "type": "error"
        },
        {
          "inputs": [
            {
              "internalType": "uint256",
              "name": "requested",
              "type": "uint256"
            },
            {
              "internalType": "uint256",
              "name": "remaining",
              "type": "uint256"
            }
          ],
          "name": "MaxSupplyExceeded",
          "type": "error"
        },
        {
          "inputs": [
            {
              "internalType": "address",
              "name": "caller",
              "type": "address"
            }
          ],
          "name": "NotMinter",
          "type": "error"
        },
        {
          "inputs": [
            {
              "internalType": "address",
              "name": "owner",
              "type": "address"
            }
          ],
          "name": "OwnableInvalidOwner",
          "type": "error"
        },
        {
          "inputs": [
            {
              "internalType": "address",
              "name": "account",
              "type": "address"
            }
          ],
          "name": "OwnableUnauthorizedAccount",
          "type": "error"
        },
        {
          "anonymous": false,
          "inputs": [
            {
              "indexed": true,
              "internalType": "address",
              "name": "owner",
              "type": "address"
            },
            {
              "indexed": true,
              "internalType": "address",
              "name": "spender",
              "type": "address"
            },
            {
              "indexed": false,
              "internalType": "uint256",
              "name": "value",
              "type": "uint256"
            }
          ],
          "name": "Approval",
          "type": "event"
        },
        {
          "anonymous": false,
          "inputs": [
            {
              "indexed": true,
              "internalType": "address",
              "name": "minter",
              "type": "address"
            },
            {
              "indexed": false,
              "internalType": "bool",
              "name": "status",
              "type": "bool"
            }
          ],
          "name": "MinterUpdated",
          "type": "event"
        },
        {
          "anonymous": false,
          "inputs": [
            {
              "indexed": true,
              "internalType": "address",
              "name": "previousOwner",
              "type": "address"
            },
            {
              "indexed": true,
              "internalType": "address",
              "name": "newOwner",
              "type": "address"
            }
          ],
          "name": "OwnershipTransferred",
          "type": "event"
        },
        {
          "anonymous": false,
          "inputs": [
            {
              "indexed": false,
              "internalType": "address",
              "name": "account",
              "type": "address"
            }
          ],
          "name": "Paused",
          "type": "event"
        },
        {
          "anonymous": false,
          "inputs": [
            {
              "indexed": true,
              "internalType": "address",
              "name": "to",
              "type": "address"
            },
            {
              "indexed": false,
              "internalType": "uint256",
              "name": "amount",
              "type": "uint256"
            },
            {
              "indexed": false,
              "internalType": "string",
              "name": "reason",
              "type": "string"
            }
          ],
          "name": "TokenMinted",
          "type": "event"
        },
        {
          "anonymous": false,
          "inputs": [
            {
              "indexed": true,
              "internalType": "address",
              "name": "from",
              "type": "address"
            },
            {
              "indexed": true,
              "internalType": "address",
              "name": "to",
              "type": "address"
            },
            {
              "indexed": false,
              "internalType": "uint256",
              "name": "value",
              "type": "uint256"
            }
          ],
          "name": "Transfer",
          "type": "event"
        },
        {
          "anonymous": false,
          "inputs": [
            {
              "indexed": false,
              "internalType": "address",
              "name": "account",
              "type": "address"
            }
          ],
          "name": "Unpaused",
          "type": "event"
        },
        {
          "inputs": [],
          "name": "ANNUAL_RELEASE_CAP",
          "outputs": [
            {
              "internalType": "uint256",
              "name": "",
              "type": "uint256"
            }
          ],
          "stateMutability": "view",
          "type": "function"
        },
        {
          "inputs": [],
          "name": "BATCH_MAX",
          "outputs": [
            {
              "internalType": "uint256",
              "name": "",
              "type": "uint256"
            }
          ],
          "stateMutability": "view",
          "type": "function"
        },
        {
          "inputs": [],
          "name": "MAX_SUPPLY",
          "outputs": [
            {
              "internalType": "uint256",
              "name": "",
              "type": "uint256"
            }
          ],
          "stateMutability": "view",
          "type": "function"
        },
        {
          "inputs": [
            {
              "internalType": "address",
              "name": "owner",
              "type": "address"
            },
            {
              "internalType": "address",
              "name": "spender",
              "type": "address"
            }
          ],
          "name": "allowance",
          "outputs": [
            {
              "internalType": "uint256",
              "name": "",
              "type": "uint256"
            }
          ],
          "stateMutability": "view",
          "type": "function"
        },
        {
          "inputs": [
            {
              "internalType": "address",
              "name": "spender",
              "type": "address"
            },
            {
              "internalType": "uint256",
              "name": "value",
              "type": "uint256"
            }
          ],
          "name": "approve",
          "outputs": [
            {
              "internalType": "bool",
              "name": "",
              "type": "bool"
            }
          ],
          "stateMutability": "nonpayable",
          "type": "function"
        },
        {
          "inputs": [
            {
              "internalType": "address",
              "name": "account",
              "type": "address"
            }
          ],
          "name": "balanceOf",
          "outputs": [
            {
              "internalType": "uint256",
              "name": "",
              "type": "uint256"
            }
          ],
          "stateMutability": "view",
          "type": "function"
        },
        {
          "inputs": [
            {
              "internalType": "address[]",
              "name": "tos",
              "type": "address[]"
            },
            {
              "internalType": "uint256[]",
              "name": "amounts",
              "type": "uint256[]"
            }
          ],
          "name": "batchMint",
          "outputs": [],
          "stateMutability": "nonpayable",
          "type": "function"
        },
        {
          "inputs": [
            {
              "internalType": "uint256",
              "name": "value",
              "type": "uint256"
            }
          ],
          "name": "burn",
          "outputs": [],
          "stateMutability": "nonpayable",
          "type": "function"
        },
        {
          "inputs": [
            {
              "internalType": "address",
              "name": "account",
              "type": "address"
            },
            {
              "internalType": "uint256",
              "name": "value",
              "type": "uint256"
            }
          ],
          "name": "burnFrom",
          "outputs": [],
          "stateMutability": "nonpayable",
          "type": "function"
        },
        {
          "inputs": [],
          "name": "currentYearEndsAt",
          "outputs": [
            {
              "internalType": "uint256",
              "name": "",
              "type": "uint256"
            }
          ],
          "stateMutability": "view",
          "type": "function"
        },
        {
          "inputs": [],
          "name": "decimals",
          "outputs": [
            {
              "internalType": "uint8",
              "name": "",
              "type": "uint8"
            }
          ],
          "stateMutability": "view",
          "type": "function"
        },
        {
          "inputs": [
            {
              "internalType": "address",
              "name": "",
              "type": "address"
            }
          ],
          "name": "isMinter",
          "outputs": [
            {
              "internalType": "bool",
              "name": "",
              "type": "bool"
            }
          ],
          "stateMutability": "view",
          "type": "function"
        },
        {
          "inputs": [
            {
              "internalType": "address",
              "name": "to",
              "type": "address"
            },
            {
              "internalType": "uint256",
              "name": "amount",
              "type": "uint256"
            }
          ],
          "name": "mint",
          "outputs": [],
          "stateMutability": "nonpayable",
          "type": "function"
        },
        {
          "inputs": [
            {
              "internalType": "address",
              "name": "to",
              "type": "address"
            },
            {
              "internalType": "uint256",
              "name": "amount",
              "type": "uint256"
            },
            {
              "internalType": "string",
              "name": "reason",
              "type": "string"
            }
          ],
          "name": "mintWithReason",
          "outputs": [],
          "stateMutability": "nonpayable",
          "type": "function"
        },
        {
          "inputs": [],
          "name": "name",
          "outputs": [
            {
              "internalType": "string",
              "name": "",
              "type": "string"
            }
          ],
          "stateMutability": "view",
          "type": "function"
        },
        {
          "inputs": [],
          "name": "owner",
          "outputs": [
            {
              "internalType": "address",
              "name": "",
              "type": "address"
            }
          ],
          "stateMutability": "view",
          "type": "function"
        },
        {
          "inputs": [],
          "name": "pause",
          "outputs": [],
          "stateMutability": "nonpayable",
          "type": "function"
        },
        {
          "inputs": [],
          "name": "paused",
          "outputs": [
            {
              "internalType": "bool",
              "name": "",
              "type": "bool"
            }
          ],
          "stateMutability": "view",
          "type": "function"
        },
        {
          "inputs": [],
          "name": "remainingAnnualCap",
          "outputs": [
            {
              "internalType": "uint256",
              "name": "",
              "type": "uint256"
            }
          ],
          "stateMutability": "view",
          "type": "function"
        },
        {
          "inputs": [],
          "name": "remainingSupply",
          "outputs": [
            {
              "internalType": "uint256",
              "name": "",
              "type": "uint256"
            }
          ],
          "stateMutability": "view",
          "type": "function"
        },
        {
          "inputs": [],
          "name": "renounceOwnership",
          "outputs": [],
          "stateMutability": "nonpayable",
          "type": "function"
        },
        {
          "inputs": [
            {
              "internalType": "address",
              "name": "minter",
              "type": "address"
            },
            {
              "internalType": "bool",
              "name": "status",
              "type": "bool"
            }
          ],
          "name": "setMinter",
          "outputs": [],
          "stateMutability": "nonpayable",
          "type": "function"
        },
        {
          "inputs": [],
          "name": "symbol",
          "outputs": [
            {
              "internalType": "string",
              "name": "",
              "type": "string"
            }
          ],
          "stateMutability": "view",
          "type": "function"
        },
        {
          "inputs": [],
          "name": "totalMintedThisYear",
          "outputs": [
            {
              "internalType": "uint256",
              "name": "",
              "type": "uint256"
            }
          ],
          "stateMutability": "view",
          "type": "function"
        },
        {
          "inputs": [],
          "name": "totalSupply",
          "outputs": [
            {
              "internalType": "uint256",
              "name": "",
              "type": "uint256"
            }
          ],
          "stateMutability": "view",
          "type": "function"
        },
        {
          "inputs": [
            {
              "internalType": "address",
              "name": "to",
              "type": "address"
            },
            {
              "internalType": "uint256",
              "name": "value",
              "type": "uint256"
            }
          ],
          "name": "transfer",
          "outputs": [
            {
              "internalType": "bool",
              "name": "",
              "type": "bool"
            }
          ],
          "stateMutability": "nonpayable",
          "type": "function"
        },
        {
          "inputs": [
            {
              "internalType": "address",
              "name": "from",
              "type": "address"
            },
            {
              "internalType": "address",
              "name": "to",
              "type": "address"
            },
            {
              "internalType": "uint256",
              "name": "value",
              "type": "uint256"
            }
          ],
          "name": "transferFrom",
          "outputs": [
            {
              "internalType": "bool",
              "name": "",
              "type": "bool"
            }
          ],
          "stateMutability": "nonpayable",
          "type": "function"
        },
        {
          "inputs": [
            {
              "internalType": "address",
              "name": "newOwner",
              "type": "address"
            }
          ],
          "name": "transferOwnership",
          "outputs": [],
          "stateMutability": "nonpayable",
          "type": "function"
        },
        {
          "inputs": [],
          "name": "unpause",
          "outputs": [],
          "stateMutability": "nonpayable",
          "type": "function"
        },
        {
          "inputs": [],
          "name": "yearStartTimestamp",
          "outputs": [
            {
              "internalType": "uint256",
              "name": "",
              "type": "uint256"
            }
          ],
          "stateMutability": "view",
          "type": "function"
        }
      ],
      "evm": {
        "bytecode": {
          "linkReferences": {},
          "object": "608034620003a057601f906001600160401b0390601f196200171f388190038581018316840185811185821017620002a457849282916040528339602093849181010312620003a057516001600160a01b03948582169491859003620003a05762000069620003a5565b600a8152692330b936902a37b5b2b760b11b8582015262000089620003a5565b916003928381526246544b60e81b878201528251858111620002a45784546001948582811c9216801562000395575b8a8310146200037f57818584931162000329575b508990858311600114620002c657600092620002ba575b505060001982871b1c191690841b1784555b8051948511620002a45760049687548481811c9116801562000299575b82821014620002845783811162000239575b5080928611600114620001cd575084955090849291600095620001c1575b50501b92600019911b1c19161781555b8115620001a95750600580546001600160a01b03198116831790915560405192167f8be0079c531659141344cd1fd0a4f28419497f9722a3daafe3b4186f6b6457e0600080a3426007556113599081620003c68239f35b602490600060405191631e4fbdf760e01b8352820152fd5b01519350388062000142565b939295859081168860005285600020956000905b898383106200021e575050501062000203575b50505050811b01815562000152565b01519060f884600019921b161c1916905538808080620001f4565b858701518955909701969485019488935090810190620001e1565b88600052816000208480890160051c820192848a106200027a575b0160051c019085905b8281106200026d57505062000124565b600081550185906200025d565b9250819262000254565b602289634e487b7160e01b6000525260246000fd5b90607f169062000112565b634e487b7160e01b600052604160045260246000fd5b015190503880620000e3565b908987941691886000528b6000209260005b8d828210620003125750508411620002f9575b505050811b018455620000f5565b015160001983891b60f8161c19169055388080620002eb565b8385015186558a97909501949384019301620002d8565b90915086600052896000208580850160051c8201928c861062000375575b918891869594930160051c01915b82811062000365575050620000cc565b6000815585945088910162000355565b9250819262000347565b634e487b7160e01b600052602260045260246000fd5b91607f1691620000b8565b600080fd5b60408051919082016001600160401b03811183821017620002a45760405256fe608060408181526004918236101561001657600080fd5b600092833560e01c91826306fdde0314610c9d57508163095ea7b314610bf357816318160ddd14610bd457816323b872dd14610b97578163313ce56714610b7b57816332cb6b0c14610b5557816334cdea7f14610b1f5781633f4ba83a14610aaf57816340c10f1914610a2257816342966c6814610a045781635c975abb146109dd578163685731071461077a5781636c8bea031461074c57816370a0823114610715578163715018a6146106b857816379cc6790146106885781637ca48513146105c85781638456cb59146105675781638da5cb5b1461053e57816395d89b411461041e578163a9059cbb146103ed578163aa271e1a146103af578163af3a4f5814610390578163c4a546ba1461036a578163cf456ae7146102d1578163da0239a614610288578163dd62ed3e1461023f578163f2fde38b146101ab57508063fcf5599c1461018d5763ffb256001461016f57600080fd5b346101895781600319360112610189576020905160c88152f35b5080fd5b50346101895781600319360112610189576020906007549051908152f35b90503461023b57602036600319011261023b576101c6610dd1565b906101cf611081565b6001600160a01b03918216928315610225575050600554826bffffffffffffffffffffffff60a01b821617600555167f8be0079c531659141344cd1fd0a4f28419497f9722a3daafe3b4186f6b6457e08380a380f35b51631e4fbdf760e01b8152908101849052602490fd5b8280fd5b5050346101895780600319360112610189578060209261025d610dd1565b610265610dec565b6001600160a01b0391821683526001865283832091168252845220549051908152f35b838334610189578160031936011261018957600254916a52b7d2dcc80cd2e40000009283039283116102be576020838351908152f35b634e487b7160e01b815260118452602490fd5b9190503461023b578060031936011261023b576102ec610dd1565b906024359182151580930361036657610303611081565b6001600160a01b031692831561035857507fb21afb9ce9be0a676f8f317ff0ca072fb89a4f8ce2d1b6fe80f8755c14f1cb19916020918486526008835280862060ff1981541660ff841617905551908152a280f35b9051634d489fcd60e11b8152fd5b8480fd5b505034610189578160031936011261018957602090516a108b2a2c280290940000008152f35b5050346101895781600319360112610189576020906006549051908152f35b5050346101895760203660031901126101895760209160ff9082906001600160a01b036103da610dd1565b1681526008855220541690519015158152f35b50503461018957806003193601126101895760209061041761040d610dd1565b6024359033610f9b565b5160018152f35b82843461053b578060031936011261053b578151918184549260018460011c9160018616958615610531575b602096878510811461051e579087899a92868b999a9b5291826000146104f4575050600114610499575b858861049589610486848a0385610e33565b51928284938452830190610d91565b0390f35b815286935091907f8a35acfbc15ff81a39ae7d344fd709f28e8600b4aa8c65c6b64bfe7fe36bd19b5b8284106104dc575050508201018161048661049588610474565b8054848a0186015288955087949093019281016104c2565b60ff19168882015294151560051b8701909401945085935061048692506104959150899050610474565b634e487b7160e01b835260228a52602483fd5b92607f169261044a565b80fd5b50503461018957816003193601126101895760055490516001600160a01b039091168152602090f35b50503461018957816003193601126101895760207f62e78cea01bee320cd4e420270b5ea74000d11b0c9f74754ebdbfc544b05a258916105a5611081565b6105ad6110ad565b6005805460ff60a01b1916600160a01b17905551338152a180f35b83915034610189576060366003190112610189576105e4610dd1565b6044359167ffffffffffffffff908184116103665736602385011215610366578381013591821161036657366024838601011161036657338552600860205260ff86862054161561067157509260208461066e95602484986106446110ad565b5196610659601f8401601f1916860189610e33565b828852018387013784010152602435906110ce565b80f35b602490865190631b0e18f960e11b82523390820152fd5b5050346101895736600319011261053b5761066e6106a4610dd1565b602435906106b3823383610ec8565b6111b9565b833461053b578060031936011261053b576106d1611081565b600580546001600160a01b0319811690915581906001600160a01b03167f8be0079c531659141344cd1fd0a4f28419497f9722a3daafe3b4186f6b6457e08280a380f35b5050346101895760203660031901126101895760209181906001600160a01b0361073d610dd1565b16815280845220549051908152f35b838334610189578160031936011261018957600754916301e1338083018093116102be576020838351908152f35b90503461023b578160031936011261023b5767ffffffffffffffff908035828111610366576107ac9036908301610e02565b60249491949384359081116109d9576107c89036908501610e02565b919093338852602095600860205260ff858a205416156109c4576107ea6110ad565b82156109b55783830361099b5760c8831161098057610807611260565b8891895b85811061096057506002546a52b7d2dcc80cd2e400000090810390811161094e578084116109355750600654916a108b2a2c280290940000009083820391821161092457818511610909575050509061086391610e91565b600655865b818110610873578780f35b8061089e61088c610887600194868c610e6b565b610eb4565b61089783878a610e6b565b35906112bd565b6108ac61088782858b610e6b565b7fdf92894dc4675a7333caa5903b69cf5d8e8ec0d3f361c88207b6688e525703bb60806108da84888b610e6b565b35928851938452888b850152600589850152640c4c2e8c6d60db1b6060850152858060a01b031692a201610868565b87516303a7f1d160e21b815292830185905282015260449150fd5b634e487b7160e01b8c52601183528bfd5b60449284885193637502c12360e11b8552840152820152fd5b50634e487b7160e01b8a526011905288fd5b9261097960019161097286898c610e6b565b3590610e91565b930161080b565b60c89060449386519363bb1cb70b60e01b8552840152820152fd5b9092916044945193631f4bb7c160e31b8552840152820152fd5b50835163c2e5347d60e01b8152fd5b90845190631b0e18f960e11b82523390820152fd5b8680fd5b50503461018957816003193601126101895760209060ff60055460a01c1690519015158152f35b8390346101895760203660031901126101895761066e9035336111b9565b838334610189578060031936011261018957610a3c610dd1565b338352600860205260ff828420541615610a9957610a586110ad565b815191602083019083821067ffffffffffffffff831117610a865761066e94955052838252602435906110ce565b634e487b7160e01b855260418652602485fd5b8151631b0e18f960e11b81523381860152602490fd5b90503461023b578260031936011261023b57610ac9611081565b6005549060ff8260a01c1615610b11575060ff60a01b1916600555513381527f5db9ee0a495bf2e6ff9c91a7834c1ba4fdd244a5e8aa4e537bd38aeae4b073aa90602090a180f35b8251638dfc202b60e01b8152fd5b838334610189578160031936011261018957600654916a108b2a2c280290940000009283039283116102be576020838351908152f35b505034610189578160031936011261018957602090516a52b7d2dcc80cd2e40000008152f35b5050346101895781600319360112610189576020905160128152f35b50503461018957606036600319011261018957602090610417610bb8610dd1565b610bc0610dec565b60443591610bcf833383610ec8565b610f9b565b5050346101895781600319360112610189576020906002549051908152f35b90503461023b578160031936011261023b57610c0d610dd1565b602435903315610c86576001600160a01b0316918215610c6f57508083602095338152600187528181208582528752205582519081527f8c5be1e5ebec7d5bd14f71427d1e84f3dd0314c0f7b2291e5b200ac8c7c3b925843392a35160018152f35b8351634a1406b160e11b8152908101859052602490fd5b835163e602df0560e01b8152808401869052602490fd5b848434610189578160031936011261018957816003549260018460011c9160018616958615610d87575b602096878510811461051e578899509688969785829a529182600014610d60575050600114610d04575b5050506104959291610486910385610e33565b9190869350600383527fc2575a0e9e593c00f959f8c92f12db2869c3395a3b0502d05e2516446f71f85b5b828410610d485750505082010181610486610495610cf1565b8054848a018601528895508794909301928101610d2f565b60ff19168782015293151560051b8601909301935084925061048691506104959050610cf1565b92607f1692610cc7565b919082519283825260005b848110610dbd575050826000602080949584010152601f8019910116010190565b602081830181015184830182015201610d9c565b600435906001600160a01b0382168203610de757565b600080fd5b602435906001600160a01b0382168203610de757565b9181601f84011215610de75782359167ffffffffffffffff8311610de7576020808501948460051b010111610de757565b90601f8019910116810190811067ffffffffffffffff821117610e5557604052565b634e487b7160e01b600052604160045260246000fd5b9190811015610e7b5760051b0190565b634e487b7160e01b600052603260045260246000fd5b91908201809211610e9e57565b634e487b7160e01b600052601160045260246000fd5b356001600160a01b0381168103610de75790565b9160018060a01b038093169160009383855260016020526040938486209183169182875260205284862054926000198410610f07575b50505050505050565b848410610f6b57508015610f53578115610f3b57855260016020528385209085526020520391205538808080808080610efe565b8451634a1406b160e11b815260048101879052602490fd5b845163e602df0560e01b815260048101879052602490fd5b8551637dc7a0d960e11b81526001600160a01b039190911660048201526024810184905260448101859052606490fd5b916001600160a01b03808416928315611068571692831561104f57610fbe6110ad565b6000908382528160205260408220549083821061101d575091604082827fddf252ad1be2c89b69c2b068fc378daa952ba7f163c4a11628f55a4df523b3ef958760209652828652038282205586815220818154019055604051908152a3565b60405163391434e360e21b81526001600160a01b03919091166004820152602481019190915260448101839052606490fd5b60405163ec442f0560e01b815260006004820152602490fd5b604051634b637e8f60e11b815260006004820152602490fd5b6005546001600160a01b0316330361109557565b60405163118cdaa760e01b8152336004820152602490fd5b60ff60055460a01c166110bc57565b60405163d93c066560e01b8152600490fd5b906110d7611260565b6002546a52b7d2dcc80cd2e4000000908103908111610e9e5780821161119b57506006546a108b2a2c28029094000000818103908111610e9e5780831161117d575090611146817fdf92894dc4675a7333caa5903b69cf5d8e8ec0d3f361c88207b6688e525703bb9493610e91565b60065561115381836112bd565b61117860405192839283526040602084015260018060a01b0316946040830190610d91565b0390a2565b82604491604051916303a7f1d160e21b835260048301526024820152fd5b6044925060405191637502c12360e11b835260048301526024820152fd5b906001600160a01b038216908115611068576111d36110ad565b6000928284528360205260408420549082821061122e5750817fddf252ad1be2c89b69c2b068fc378daa952ba7f163c4a11628f55a4df523b3ef926020928587528684520360408620558060025403600255604051908152a3565b60405163391434e360e21b81526001600160a01b03919091166004820152602481019190915260448101829052606490fd5b60078054906301e1338091828101809111610e9e57421015611280575050565b90915b81548381018091116112a85780421061129d578255611283565b509150506000600655565b60246000634e487b7160e01b81526011600452fd5b6001600160a01b031690811561104f577fddf252ad1be2c89b69c2b068fc378daa952ba7f163c4a11628f55a4df523b3ef60206000926112fb6110ad565b61130781600254610e91565b60025584845283825260408420818154019055604051908152a356fea2646970667358221220317315d56e1f4f793b3bd99829807d109bdffb85ab37d18bee51dbf82032f5f464736f6c63430008180033",
          "opcodes": "PUSH1 0x80 CALLVALUE PUSH3 0x3A0 JUMPI PUSH1 0x1F SWAP1 PUSH1 0x1 PUSH1 0x1 PUSH1 0x40 SHL SUB SWAP1 PUSH1 0x1F NOT PUSH3 0x171F CODESIZE DUP2 SWAP1 SUB DUP6 DUP2 ADD DUP4 AND DUP5 ADD DUP6 DUP2 GT DUP6 DUP3 LT OR PUSH3 0x2A4 JUMPI DUP5 SWAP3 DUP3 SWAP2 PUSH1 0x40 MSTORE DUP4 CODECOPY PUSH1 0x20 SWAP4 DUP5 SWAP2 DUP2 ADD SUB SLT PUSH3 0x3A0 JUMPI MLOAD PUSH1 0x1 PUSH1 0x1 PUSH1 0xA0 SHL SUB SWAP5 DUP6 DUP3 AND SWAP5 SWAP2 DUP6 SWAP1 SUB PUSH3 0x3A0 JUMPI PUSH3 0x69 PUSH3 0x3A5 JUMP JUMPDEST PUSH1 0xA DUP2 MSTORE PUSH10 0x2330B936902A37B5B2B7 PUSH1 0xB1 SHL DUP6 DUP3 ADD MSTORE PUSH3 0x89 PUSH3 0x3A5 JUMP JUMPDEST SWAP2 PUSH1 0x3 SWAP3 DUP4 DUP2 MSTORE PUSH3 0x46544B PUSH1 0xE8 SHL DUP8 DUP3 ADD MSTORE DUP3 MLOAD DUP6 DUP2 GT PUSH3 0x2A4 JUMPI DUP5 SLOAD PUSH1 0x1 SWAP5 DUP6 DUP3 DUP2 SHR SWAP3 AND DUP1 ISZERO PUSH3 0x395 JUMPI JUMPDEST DUP11 DUP4 LT EQ PUSH3 0x37F JUMPI DUP2 DUP6 DUP5 SWAP4 GT PUSH3 0x329 JUMPI JUMPDEST POP DUP10 SWAP1 DUP6 DUP4 GT PUSH1 0x1 EQ PUSH3 0x2C6 JUMPI PUSH1 0x0 SWAP3 PUSH3 0x2BA JUMPI JUMPDEST POP POP PUSH1 0x0 NOT DUP3 DUP8 SHL SHR NOT AND SWAP1 DUP5 SHL OR DUP5 SSTORE JUMPDEST DUP1 MLOAD SWAP5 DUP6 GT PUSH3 0x2A4 JUMPI PUSH1 0x4 SWAP7 DUP8 SLOAD DUP5 DUP2 DUP2 SHR SWAP2 AND DUP1 ISZERO PUSH3 0x299 JUMPI JUMPDEST DUP3 DUP3 LT EQ PUSH3 0x284 JUMPI DUP4 DUP2 GT PUSH3 0x239 JUMPI JUMPDEST POP DUP1 SWAP3 DUP7 GT PUSH1 0x1 EQ PUSH3 0x1CD JUMPI POP DUP5 SWAP6 POP SWAP1 DUP5 SWAP3 SWAP2 PUSH1 0x0 SWAP6 PUSH3 0x1C1 JUMPI JUMPDEST POP POP SHL SWAP3 PUSH1 0x0 NOT SWAP2 SHL SHR NOT AND OR DUP2 SSTORE JUMPDEST DUP2 ISZERO PUSH3 0x1A9 JUMPI POP PUSH1 0x5 DUP1 SLOAD PUSH1 0x1 PUSH1 0x1 PUSH1 0xA0 SHL SUB NOT DUP2 AND DUP4 OR SWAP1 SWAP2 SSTORE PUSH1 0x40 MLOAD SWAP3 AND PUSH32 0x8BE0079C531659141344CD1FD0A4F28419497F9722A3DAAFE3B4186F6B6457E0 PUSH1 0x0 DUP1 LOG3 TIMESTAMP PUSH1 0x7 SSTORE PUSH2 0x1359 SWAP1 DUP2 PUSH3 0x3C6 DUP3 CODECOPY RETURN JUMPDEST PUSH1 0x24 SWAP1 PUSH1 0x0 PUSH1 0x40 MLOAD SWAP2 PUSH4 0x1E4FBDF7 PUSH1 0xE0 SHL DUP4 MSTORE DUP3 ADD MSTORE REVERT JUMPDEST ADD MLOAD SWAP4 POP CODESIZE DUP1 PUSH3 0x142 JUMP JUMPDEST SWAP4 SWAP3 SWAP6 DUP6 SWAP1 DUP2 AND DUP9 PUSH1 0x0 MSTORE DUP6 PUSH1 0x0 KECCAK256 SWAP6 PUSH1 0x0 SWAP1 JUMPDEST DUP10 DUP4 DUP4 LT PUSH3 0x21E JUMPI POP POP POP LT PUSH3 0x203 JUMPI JUMPDEST POP POP POP POP DUP2 SHL ADD DUP2 SSTORE PUSH3 0x152 JUMP JUMPDEST ADD MLOAD SWAP1 PUSH1 0xF8 DUP5 PUSH1 0x0 NOT SWAP3 SHL AND SHR NOT AND SWAP1 SSTORE CODESIZE DUP1 DUP1 DUP1 PUSH3 0x1F4 JUMP JUMPDEST DUP6 DUP8 ADD MLOAD DUP10 SSTORE SWAP1 SWAP8 ADD SWAP7 SWAP5 DUP6 ADD SWAP5 DUP9 SWAP4 POP SWAP1 DUP2 ADD SWAP1 PUSH3 0x1E1 JUMP JUMPDEST DUP9 PUSH1 0x0 MSTORE DUP2 PUSH1 0x0 KECCAK256 DUP5 DUP1 DUP10 ADD PUSH1 0x5 SHR DUP3 ADD SWAP3 DUP5 DUP11 LT PUSH3 0x27A JUMPI JUMPDEST ADD PUSH1 0x5 SHR ADD SWAP1 DUP6 SWAP1 JUMPDEST DUP3 DUP2 LT PUSH3 0x26D JUMPI POP POP PUSH3 0x124 JUMP JUMPDEST PUSH1 0x0 DUP2 SSTORE ADD DUP6 SWAP1 PUSH3 0x25D JUMP JUMPDEST SWAP3 POP DUP2 SWAP3 PUSH3 0x254 JUMP JUMPDEST PUSH1 0x22 DUP10 PUSH4 0x4E487B71 PUSH1 0xE0 SHL PUSH1 0x0 MSTORE MSTORE PUSH1 0x24 PUSH1 0x0 REVERT JUMPDEST SWAP1 PUSH1 0x7F AND SWAP1 PUSH3 0x112 JUMP JUMPDEST PUSH4 0x4E487B71 PUSH1 0xE0 SHL PUSH1 0x0 MSTORE PUSH1 0x41 PUSH1 0x4 MSTORE PUSH1 0x24 PUSH1 0x0 REVERT JUMPDEST ADD MLOAD SWAP1 POP CODESIZE DUP1 PUSH3 0xE3 JUMP JUMPDEST SWAP1 DUP10 DUP8 SWAP5 AND SWAP2 DUP9 PUSH1 0x0 MSTORE DUP12 PUSH1 0x0 KECCAK256 SWAP3 PUSH1 0x0 JUMPDEST DUP14 DUP3 DUP3 LT PUSH3 0x312 JUMPI POP POP DUP5 GT PUSH3 0x2F9 JUMPI JUMPDEST POP POP POP DUP2 SHL ADD DUP5 SSTORE PUSH3 0xF5 JUMP JUMPDEST ADD MLOAD PUSH1 0x0 NOT DUP4 DUP10 SHL PUSH1 0xF8 AND SHR NOT AND SWAP1 SSTORE CODESIZE DUP1 DUP1 PUSH3 0x2EB JUMP JUMPDEST DUP4 DUP6 ADD MLOAD DUP7 SSTORE DUP11 SWAP8 SWAP1 SWAP6 ADD SWAP5 SWAP4 DUP5 ADD SWAP4 ADD PUSH3 0x2D8 JUMP JUMPDEST SWAP1 SWAP2 POP DUP7 PUSH1 0x0 MSTORE DUP10 PUSH1 0x0 KECCAK256 DUP6 DUP1 DUP6 ADD PUSH1 0x5 SHR DUP3 ADD SWAP3 DUP13 DUP7 LT PUSH3 0x375 JUMPI JUMPDEST SWAP2 DUP9 SWAP2 DUP7 SWAP6 SWAP5 SWAP4 ADD PUSH1 0x5 SHR ADD SWAP2 JUMPDEST DUP3 DUP2 LT PUSH3 0x365 JUMPI POP POP PUSH3 0xCC JUMP JUMPDEST PUSH1 0x0 DUP2 SSTORE DUP6 SWAP5 POP DUP9 SWAP2 ADD PUSH3 0x355 JUMP JUMPDEST SWAP3 POP DUP2 SWAP3 PUSH3 0x347 JUMP JUMPDEST PUSH4 0x4E487B71 PUSH1 0xE0 SHL PUSH1 0x0 MSTORE PUSH1 0x22 PUSH1 0x4 MSTORE PUSH1 0x24 PUSH1 0x0 REVERT JUMPDEST SWAP2 PUSH1 0x7F AND SWAP2 PUSH3 0xB8 JUMP JUMPDEST PUSH1 0x0 DUP1 REVERT JUMPDEST PUSH1 0x40 DUP1 MLOAD SWAP2 SWAP1 DUP3 ADD PUSH1 0x1 PUSH1 0x1 PUSH1 0x40 SHL SUB DUP2 GT DUP4 DUP3 LT OR PUSH3 0x2A4 JUMPI PUSH1 0x40 MSTORE JUMP INVALID PUSH1 0x80 PUSH1 0x40 DUP2 DUP2 MSTORE PUSH1 0x4 SWAP2 DUP3 CALLDATASIZE LT ISZERO PUSH2 0x16 JUMPI PUSH1 0x0 DUP1 REVERT JUMPDEST PUSH1 0x0 SWAP3 DUP4 CALLDATALOAD PUSH1 0xE0 SHR SWAP2 DUP3 PUSH4 0x6FDDE03 EQ PUSH2 0xC9D JUMPI POP DUP2 PUSH4 0x95EA7B3 EQ PUSH2 0xBF3 JUMPI DUP2 PUSH4 0x18160DDD EQ PUSH2 0xBD4 JUMPI DUP2 PUSH4 0x23B872DD EQ PUSH2 0xB97 JUMPI DUP2 PUSH4 0x313CE567 EQ PUSH2 0xB7B JUMPI DUP2 PUSH4 0x32CB6B0C EQ PUSH2 0xB55 JUMPI DUP2 PUSH4 0x34CDEA7F EQ PUSH2 0xB1F JUMPI DUP2 PUSH4 0x3F4BA83A EQ PUSH2 0xAAF JUMPI DUP2 PUSH4 0x40C10F19 EQ PUSH2 0xA22 JUMPI DUP2 PUSH4 0x42966C68 EQ PUSH2 0xA04 JUMPI DUP2 PUSH4 0x5C975ABB EQ PUSH2 0x9DD JUMPI DUP2 PUSH4 0x68573107 EQ PUSH2 0x77A JUMPI DUP2 PUSH4 0x6C8BEA03 EQ PUSH2 0x74C JUMPI DUP2 PUSH4 0x70A08231 EQ PUSH2 0x715 JUMPI DUP2 PUSH4 0x715018A6 EQ PUSH2 0x6B8 JUMPI DUP2 PUSH4 0x79CC6790 EQ PUSH2 0x688 JUMPI DUP2 PUSH4 0x7CA48513 EQ PUSH2 0x5C8 JUMPI DUP2 PUSH4 0x8456CB59 EQ PUSH2 0x567 JUMPI DUP2 PUSH4 0x8DA5CB5B EQ PUSH2 0x53E JUMPI DUP2 PUSH4 0x95D89B41 EQ PUSH2 0x41E JUMPI DUP2 PUSH4 0xA9059CBB EQ PUSH2 0x3ED JUMPI DUP2 PUSH4 0xAA271E1A EQ PUSH2 0x3AF JUMPI DUP2 PUSH4 0xAF3A4F58 EQ PUSH2 0x390 JUMPI DUP2 PUSH4 0xC4A546BA EQ PUSH2 0x36A JUMPI DUP2 PUSH4 0xCF456AE7 EQ PUSH2 0x2D1 JUMPI DUP2 PUSH4 0xDA0239A6 EQ PUSH2 0x288 JUMPI DUP2 PUSH4 0xDD62ED3E EQ PUSH2 0x23F JUMPI DUP2 PUSH4 0xF2FDE38B EQ PUSH2 0x1AB JUMPI POP DUP1 PUSH4 0xFCF5599C EQ PUSH2 0x18D JUMPI PUSH4 0xFFB25600 EQ PUSH2 0x16F JUMPI PUSH1 0x0 DUP1 REVERT JUMPDEST CALLVALUE PUSH2 0x189 JUMPI DUP2 PUSH1 0x3 NOT CALLDATASIZE ADD SLT PUSH2 0x189 JUMPI PUSH1 0x20 SWAP1 MLOAD PUSH1 0xC8 DUP2 MSTORE RETURN JUMPDEST POP DUP1 REVERT JUMPDEST POP CALLVALUE PUSH2 0x189 JUMPI DUP2 PUSH1 0x3 NOT CALLDATASIZE ADD SLT PUSH2 0x189 JUMPI PUSH1 0x20 SWAP1 PUSH1 0x7 SLOAD SWAP1 MLOAD SWAP1 DUP2 MSTORE RETURN JUMPDEST SWAP1 POP CALLVALUE PUSH2 0x23B JUMPI PUSH1 0x20 CALLDATASIZE PUSH1 0x3 NOT ADD SLT PUSH2 0x23B JUMPI PUSH2 0x1C6 PUSH2 0xDD1 JUMP JUMPDEST SWAP1 PUSH2 0x1CF PUSH2 0x1081 JUMP JUMPDEST PUSH1 0x1 PUSH1 0x1 PUSH1 0xA0 SHL SUB SWAP2 DUP3 AND SWAP3 DUP4 ISZERO PUSH2 0x225 JUMPI POP POP PUSH1 0x5 SLOAD DUP3 PUSH12 0xFFFFFFFFFFFFFFFFFFFFFFFF PUSH1 0xA0 SHL DUP3 AND OR PUSH1 0x5 SSTORE AND PUSH32 0x8BE0079C531659141344CD1FD0A4F28419497F9722A3DAAFE3B4186F6B6457E0 DUP4 DUP1 LOG3 DUP1 RETURN JUMPDEST MLOAD PUSH4 0x1E4FBDF7 PUSH1 0xE0 SHL DUP2 MSTORE SWAP1 DUP2 ADD DUP5 SWAP1 MSTORE PUSH1 0x24 SWAP1 REVERT JUMPDEST DUP3 DUP1 REVERT JUMPDEST POP POP CALLVALUE PUSH2 0x189 JUMPI DUP1 PUSH1 0x3 NOT CALLDATASIZE ADD SLT PUSH2 0x189 JUMPI DUP1 PUSH1 0x20 SWAP3 PUSH2 0x25D PUSH2 0xDD1 JUMP JUMPDEST PUSH2 0x265 PUSH2 0xDEC JUMP JUMPDEST PUSH1 0x1 PUSH1 0x1 PUSH1 0xA0 SHL SUB SWAP2 DUP3 AND DUP4 MSTORE PUSH1 0x1 DUP7 MSTORE DUP4 DUP4 KECCAK256 SWAP2 AND DUP3 MSTORE DUP5 MSTORE KECCAK256 SLOAD SWAP1 MLOAD SWAP1 DUP2 MSTORE RETURN JUMPDEST DUP4 DUP4 CALLVALUE PUSH2 0x189 JUMPI DUP2 PUSH1 0x3 NOT CALLDATASIZE ADD SLT PUSH2 0x189 JUMPI PUSH1 0x2 SLOAD SWAP2 PUSH11 0x52B7D2DCC80CD2E4000000 SWAP3 DUP4 SUB SWAP3 DUP4 GT PUSH2 0x2BE JUMPI PUSH1 0x20 DUP4 DUP4 MLOAD SWAP1 DUP2 MSTORE RETURN JUMPDEST PUSH4 0x4E487B71 PUSH1 0xE0 SHL DUP2 MSTORE PUSH1 0x11 DUP5 MSTORE PUSH1 0x24 SWAP1 REVERT JUMPDEST SWAP2 SWAP1 POP CALLVALUE PUSH2 0x23B JUMPI DUP1 PUSH1 0x3 NOT CALLDATASIZE ADD SLT PUSH2 0x23B JUMPI PUSH2 0x2EC PUSH2 0xDD1 JUMP JUMPDEST SWAP1 PUSH1 0x24 CALLDATALOAD SWAP2 DUP3 ISZERO ISZERO DUP1 SWAP4 SUB PUSH2 0x366 JUMPI PUSH2 0x303 PUSH2 0x1081 JUMP JUMPDEST PUSH1 0x1 PUSH1 0x1 PUSH1 0xA0 SHL SUB AND SWAP3 DUP4 ISZERO PUSH2 0x358 JUMPI POP PUSH32 0xB21AFB9CE9BE0A676F8F317FF0CA072FB89A4F8CE2D1B6FE80F8755C14F1CB19 SWAP2 PUSH1 0x20 SWAP2 DUP5 DUP7 MSTORE PUSH1 0x8 DUP4 MSTORE DUP1 DUP7 KECCAK256 PUSH1 0xFF NOT DUP2 SLOAD AND PUSH1 0xFF DUP5 AND OR SWAP1 SSTORE MLOAD SWAP1 DUP2 MSTORE LOG2 DUP1 RETURN JUMPDEST SWAP1 MLOAD PUSH4 0x4D489FCD PUSH1 0xE1 SHL DUP2 MSTORE REVERT JUMPDEST DUP5 DUP1 REVERT JUMPDEST POP POP CALLVALUE PUSH2 0x189 JUMPI DUP2 PUSH1 0x3 NOT CALLDATASIZE ADD SLT PUSH2 0x189 JUMPI PUSH1 0x20 SWAP1 MLOAD PUSH11 0x108B2A2C28029094000000 DUP2 MSTORE RETURN JUMPDEST POP POP CALLVALUE PUSH2 0x189 JUMPI DUP2 PUSH1 0x3 NOT CALLDATASIZE ADD SLT PUSH2 0x189 JUMPI PUSH1 0x20 SWAP1 PUSH1 0x6 SLOAD SWAP1 MLOAD SWAP1 DUP2 MSTORE RETURN JUMPDEST POP POP CALLVALUE PUSH2 0x189 JUMPI PUSH1 0x20 CALLDATASIZE PUSH1 0x3 NOT ADD SLT PUSH2 0x189 JUMPI PUSH1 0x20 SWAP2 PUSH1 0xFF SWAP1 DUP3 SWAP1 PUSH1 0x1 PUSH1 0x1 PUSH1 0xA0 SHL SUB PUSH2 0x3DA PUSH2 0xDD1 JUMP JUMPDEST AND DUP2 MSTORE PUSH1 0x8 DUP6 MSTORE KECCAK256 SLOAD AND SWAP1 MLOAD SWAP1 ISZERO ISZERO DUP2 MSTORE RETURN JUMPDEST POP POP CALLVALUE PUSH2 0x189 JUMPI DUP1 PUSH1 0x3 NOT CALLDATASIZE ADD SLT PUSH2 0x189 JUMPI PUSH1 0x20 SWAP1 PUSH2 0x417 PUSH2 0x40D PUSH2 0xDD1 JUMP JUMPDEST PUSH1 0x24 CALLDATALOAD SWAP1 CALLER PUSH2 0xF9B JUMP JUMPDEST MLOAD PUSH1 0x1 DUP2 MSTORE RETURN JUMPDEST DUP3 DUP5 CALLVALUE PUSH2 0x53B JUMPI DUP1 PUSH1 0x3 NOT CALLDATASIZE ADD SLT PUSH2 0x53B JUMPI DUP2 MLOAD SWAP2 DUP2 DUP5 SLOAD SWAP3 PUSH1 0x1 DUP5 PUSH1 0x1 SHR SWAP2 PUSH1 0x1 DUP7 AND SWAP6 DUP7 ISZERO PUSH2 0x531 JUMPI JUMPDEST PUSH1 0x20 SWAP7 DUP8 DUP6 LT DUP2 EQ PUSH2 0x51E JUMPI SWAP1 DUP8 DUP10 SWAP11 SWAP3 DUP7 DUP12 SWAP10 SWAP11 SWAP12 MSTORE SWAP2 DUP3 PUSH1 0x0 EQ PUSH2 0x4F4 JUMPI POP POP PUSH1 0x1 EQ PUSH2 0x499 JUMPI JUMPDEST DUP6 DUP9 PUSH2 0x495 DUP10 PUSH2 0x486 DUP5 DUP11 SUB DUP6 PUSH2 0xE33 JUMP JUMPDEST MLOAD SWAP3 DUP3 DUP5 SWAP4 DUP5 MSTORE DUP4 ADD SWAP1 PUSH2 0xD91 JUMP JUMPDEST SUB SWAP1 RETURN JUMPDEST DUP2 MSTORE DUP7 SWAP4 POP SWAP2 SWAP1 PUSH32 0x8A35ACFBC15FF81A39AE7D344FD709F28E8600B4AA8C65C6B64BFE7FE36BD19B JUMPDEST DUP3 DUP5 LT PUSH2 0x4DC JUMPI POP POP POP DUP3 ADD ADD DUP2 PUSH2 0x486 PUSH2 0x495 DUP9 PUSH2 0x474 JUMP JUMPDEST DUP1 SLOAD DUP5 DUP11 ADD DUP7 ADD MSTORE DUP9 SWAP6 POP DUP8 SWAP5 SWAP1 SWAP4 ADD SWAP3 DUP2 ADD PUSH2 0x4C2 JUMP JUMPDEST PUSH1 0xFF NOT AND DUP9 DUP3 ADD MSTORE SWAP5 ISZERO ISZERO PUSH1 0x5 SHL DUP8 ADD SWAP1 SWAP5 ADD SWAP5 POP DUP6 SWAP4 POP PUSH2 0x486 SWAP3 POP PUSH2 0x495 SWAP2 POP DUP10 SWAP1 POP PUSH2 0x474 JUMP JUMPDEST PUSH4 0x4E487B71 PUSH1 0xE0 SHL DUP4 MSTORE PUSH1 0x22 DUP11 MSTORE PUSH1 0x24 DUP4 REVERT JUMPDEST SWAP3 PUSH1 0x7F AND SWAP3 PUSH2 0x44A JUMP JUMPDEST DUP1 REVERT JUMPDEST POP POP CALLVALUE PUSH2 0x189 JUMPI DUP2 PUSH1 0x3 NOT CALLDATASIZE ADD SLT PUSH2 0x189 JUMPI PUSH1 0x5 SLOAD SWAP1 MLOAD PUSH1 0x1 PUSH1 0x1 PUSH1 0xA0 SHL SUB SWAP1 SWAP2 AND DUP2 MSTORE PUSH1 0x20 SWAP1 RETURN JUMPDEST POP POP CALLVALUE PUSH2 0x189 JUMPI DUP2 PUSH1 0x3 NOT CALLDATASIZE ADD SLT PUSH2 0x189 JUMPI PUSH1 0x20 PUSH32 0x62E78CEA01BEE320CD4E420270B5EA74000D11B0C9F74754EBDBFC544B05A258 SWAP2 PUSH2 0x5A5 PUSH2 0x1081 JUMP JUMPDEST PUSH2 0x5AD PUSH2 0x10AD JUMP JUMPDEST PUSH1 0x5 DUP1 SLOAD PUSH1 0xFF PUSH1 0xA0 SHL NOT AND PUSH1 0x1 PUSH1 0xA0 SHL OR SWAP1 SSTORE MLOAD CALLER DUP2 MSTORE LOG1 DUP1 RETURN JUMPDEST DUP4 SWAP2 POP CALLVALUE PUSH2 0x189 JUMPI PUSH1 0x60 CALLDATASIZE PUSH1 0x3 NOT ADD SLT PUSH2 0x189 JUMPI PUSH2 0x5E4 PUSH2 0xDD1 JUMP JUMPDEST PUSH1 0x44 CALLDATALOAD SWAP2 PUSH8 0xFFFFFFFFFFFFFFFF SWAP1 DUP2 DUP5 GT PUSH2 0x366 JUMPI CALLDATASIZE PUSH1 0x23 DUP6 ADD SLT ISZERO PUSH2 0x366 JUMPI DUP4 DUP2 ADD CALLDATALOAD SWAP2 DUP3 GT PUSH2 0x366 JUMPI CALLDATASIZE PUSH1 0x24 DUP4 DUP7 ADD ADD GT PUSH2 0x366 JUMPI CALLER DUP6 MSTORE PUSH1 0x8 PUSH1 0x20 MSTORE PUSH1 0xFF DUP7 DUP7 KECCAK256 SLOAD AND ISZERO PUSH2 0x671 JUMPI POP SWAP3 PUSH1 0x20 DUP5 PUSH2 0x66E SWAP6 PUSH1 0x24 DUP5 SWAP9 PUSH2 0x644 PUSH2 0x10AD JUMP JUMPDEST MLOAD SWAP7 PUSH2 0x659 PUSH1 0x1F DUP5 ADD PUSH1 0x1F NOT AND DUP7 ADD DUP10 PUSH2 0xE33 JUMP JUMPDEST DUP3 DUP9 MSTORE ADD DUP4 DUP8 ADD CALLDATACOPY DUP5 ADD ADD MSTORE PUSH1 0x24 CALLDATALOAD SWAP1 PUSH2 0x10CE JUMP JUMPDEST DUP1 RETURN JUMPDEST PUSH1 0x24 SWAP1 DUP7 MLOAD SWAP1 PUSH4 0x1B0E18F9 PUSH1 0xE1 SHL DUP3 MSTORE CALLER SWAP1 DUP3 ADD MSTORE REVERT JUMPDEST POP POP CALLVALUE PUSH2 0x189 JUMPI CALLDATASIZE PUSH1 0x3 NOT ADD SLT PUSH2 0x53B JUMPI PUSH2 0x66E PUSH2 0x6A4 PUSH2 0xDD1 JUMP JUMPDEST PUSH1 0x24 CALLDATALOAD SWAP1 PUSH2 0x6B3 DUP3 CALLER DUP4 PUSH2 0xEC8 JUMP JUMPDEST PUSH2 0x11B9 JUMP JUMPDEST DUP4 CALLVALUE PUSH2 0x53B JUMPI DUP1 PUSH1 0x3 NOT CALLDATASIZE ADD SLT PUSH2 0x53B JUMPI PUSH2 0x6D1 PUSH2 0x1081 JUMP JUMPDEST PUSH1 0x5 DUP1 SLOAD PUSH1 0x1 PUSH1 0x1 PUSH1 0xA0 SHL SUB NOT DUP2 AND SWAP1 SWAP2 SSTORE DUP2 SWAP1 PUSH1 0x1 PUSH1 0x1 PUSH1 0xA0 SHL SUB AND PUSH32 0x8BE0079C531659141344CD1FD0A4F28419497F9722A3DAAFE3B4186F6B6457E0 DUP3 DUP1 LOG3 DUP1 RETURN JUMPDEST POP POP CALLVALUE PUSH2 0x189 JUMPI PUSH1 0x20 CALLDATASIZE PUSH1 0x3 NOT ADD SLT PUSH2 0x189 JUMPI PUSH1 0x20 SWAP2 DUP2 SWAP1 PUSH1 0x1 PUSH1 0x1 PUSH1 0xA0 SHL SUB PUSH2 0x73D PUSH2 0xDD1 JUMP JUMPDEST AND DUP2 MSTORE DUP1 DUP5 MSTORE KECCAK256 SLOAD SWAP1 MLOAD SWAP1 DUP2 MSTORE RETURN JUMPDEST DUP4 DUP4 CALLVALUE PUSH2 0x189 JUMPI DUP2 PUSH1 0x3 NOT CALLDATASIZE ADD SLT PUSH2 0x189 JUMPI PUSH1 0x7 SLOAD SWAP2 PUSH4 0x1E13380 DUP4 ADD DUP1 SWAP4 GT PUSH2 0x2BE JUMPI PUSH1 0x20 DUP4 DUP4 MLOAD SWAP1 DUP2 MSTORE RETURN JUMPDEST SWAP1 POP CALLVALUE PUSH2 0x23B JUMPI DUP2 PUSH1 0x3 NOT CALLDATASIZE ADD SLT PUSH2 0x23B JUMPI PUSH8 0xFFFFFFFFFFFFFFFF SWAP1 DUP1 CALLDATALOAD DUP3 DUP2 GT PUSH2 0x366 JUMPI PUSH2 0x7AC SWAP1 CALLDATASIZE SWAP1 DUP4 ADD PUSH2 0xE02 JUMP JUMPDEST PUSH1 0x24 SWAP5 SWAP2 SWAP5 SWAP4 DUP5 CALLDATALOAD SWAP1 DUP2 GT PUSH2 0x9D9 JUMPI PUSH2 0x7C8 SWAP1 CALLDATASIZE SWAP1 DUP6 ADD PUSH2 0xE02 JUMP JUMPDEST SWAP2 SWAP1 SWAP4 CALLER DUP9 MSTORE PUSH1 0x20 SWAP6 PUSH1 0x8 PUSH1 0x20 MSTORE PUSH1 0xFF DUP6 DUP11 KECCAK256 SLOAD AND ISZERO PUSH2 0x9C4 JUMPI PUSH2 0x7EA PUSH2 0x10AD JUMP JUMPDEST DUP3 ISZERO PUSH2 0x9B5 JUMPI DUP4 DUP4 SUB PUSH2 0x99B JUMPI PUSH1 0xC8 DUP4 GT PUSH2 0x980 JUMPI PUSH2 0x807 PUSH2 0x1260 JUMP JUMPDEST DUP9 SWAP2 DUP10 JUMPDEST DUP6 DUP2 LT PUSH2 0x960 JUMPI POP PUSH1 0x2 SLOAD PUSH11 0x52B7D2DCC80CD2E4000000 SWAP1 DUP2 SUB SWAP1 DUP2 GT PUSH2 0x94E JUMPI DUP1 DUP5 GT PUSH2 0x935 JUMPI POP PUSH1 0x6 SLOAD SWAP2 PUSH11 0x108B2A2C28029094000000 SWAP1 DUP4 DUP3 SUB SWAP2 DUP3 GT PUSH2 0x924 JUMPI DUP2 DUP6 GT PUSH2 0x909 JUMPI POP POP POP SWAP1 PUSH2 0x863 SWAP2 PUSH2 0xE91 JUMP JUMPDEST PUSH1 0x6 SSTORE DUP7 JUMPDEST DUP2 DUP2 LT PUSH2 0x873 JUMPI DUP8 DUP1 RETURN JUMPDEST DUP1 PUSH2 0x89E PUSH2 0x88C PUSH2 0x887 PUSH1 0x1 SWAP5 DUP7 DUP13 PUSH2 0xE6B JUMP JUMPDEST PUSH2 0xEB4 JUMP JUMPDEST PUSH2 0x897 DUP4 DUP8 DUP11 PUSH2 0xE6B JUMP JUMPDEST CALLDATALOAD SWAP1 PUSH2 0x12BD JUMP JUMPDEST PUSH2 0x8AC PUSH2 0x887 DUP3 DUP6 DUP12 PUSH2 0xE6B JUMP JUMPDEST PUSH32 0xDF92894DC4675A7333CAA5903B69CF5D8E8EC0D3F361C88207B6688E525703BB PUSH1 0x80 PUSH2 0x8DA DUP5 DUP9 DUP12 PUSH2 0xE6B JUMP JUMPDEST CALLDATALOAD SWAP3 DUP9 MLOAD SWAP4 DUP5 MSTORE DUP9 DUP12 DUP6 ADD MSTORE PUSH1 0x5 DUP10 DUP6 ADD MSTORE PUSH5 0xC4C2E8C6D PUSH1 0xDB SHL PUSH1 0x60 DUP6 ADD MSTORE DUP6 DUP1 PUSH1 0xA0 SHL SUB AND SWAP3 LOG2 ADD PUSH2 0x868 JUMP JUMPDEST DUP8 MLOAD PUSH4 0x3A7F1D1 PUSH1 0xE2 SHL DUP2 MSTORE SWAP3 DUP4 ADD DUP6 SWAP1 MSTORE DUP3 ADD MSTORE PUSH1 0x44 SWAP2 POP REVERT JUMPDEST PUSH4 0x4E487B71 PUSH1 0xE0 SHL DUP13 MSTORE PUSH1 0x11 DUP4 MSTORE DUP12 REVERT JUMPDEST PUSH1 0x44 SWAP3 DUP5 DUP9 MLOAD SWAP4 PUSH4 0x7502C123 PUSH1 0xE1 SHL DUP6 MSTORE DUP5 ADD MSTORE DUP3 ADD MSTORE REVERT JUMPDEST POP PUSH4 0x4E487B71 PUSH1 0xE0 SHL DUP11 MSTORE PUSH1 0x11 SWAP1 MSTORE DUP9 REVERT JUMPDEST SWAP3 PUSH2 0x979 PUSH1 0x1 SWAP2 PUSH2 0x972 DUP7 DUP10 DUP13 PUSH2 0xE6B JUMP JUMPDEST CALLDATALOAD SWAP1 PUSH2 0xE91 JUMP JUMPDEST SWAP4 ADD PUSH2 0x80B JUMP JUMPDEST PUSH1 0xC8 SWAP1 PUSH1 0x44 SWAP4 DUP7 MLOAD SWAP4 PUSH4 0xBB1CB70B PUSH1 0xE0 SHL DUP6 MSTORE DUP5 ADD MSTORE DUP3 ADD MSTORE REVERT JUMPDEST SWAP1 SWAP3 SWAP2 PUSH1 0x44 SWAP5 MLOAD SWAP4 PUSH4 0x1F4BB7C1 PUSH1 0xE3 SHL DUP6 MSTORE DUP5 ADD MSTORE DUP3 ADD MSTORE REVERT JUMPDEST POP DUP4 MLOAD PUSH4 0xC2E5347D PUSH1 0xE0 SHL DUP2 MSTORE REVERT JUMPDEST SWAP1 DUP5 MLOAD SWAP1 PUSH4 0x1B0E18F9 PUSH1 0xE1 SHL DUP3 MSTORE CALLER SWAP1 DUP3 ADD MSTORE REVERT JUMPDEST DUP7 DUP1 REVERT JUMPDEST POP POP CALLVALUE PUSH2 0x189 JUMPI DUP2 PUSH1 0x3 NOT CALLDATASIZE ADD SLT PUSH2 0x189 JUMPI PUSH1 0x20 SWAP1 PUSH1 0xFF PUSH1 0x5 SLOAD PUSH1 0xA0 SHR AND SWAP1 MLOAD SWAP1 ISZERO ISZERO DUP2 MSTORE RETURN JUMPDEST DUP4 SWAP1 CALLVALUE PUSH2 0x189 JUMPI PUSH1 0x20 CALLDATASIZE PUSH1 0x3 NOT ADD SLT PUSH2 0x189 JUMPI PUSH2 0x66E SWAP1 CALLDATALOAD CALLER PUSH2 0x11B9 JUMP JUMPDEST DUP4 DUP4 CALLVALUE PUSH2 0x189 JUMPI DUP1 PUSH1 0x3 NOT CALLDATASIZE ADD SLT PUSH2 0x189 JUMPI PUSH2 0xA3C PUSH2 0xDD1 JUMP JUMPDEST CALLER DUP4 MSTORE PUSH1 0x8 PUSH1 0x20 MSTORE PUSH1 0xFF DUP3 DUP5 KECCAK256 SLOAD AND ISZERO PUSH2 0xA99 JUMPI PUSH2 0xA58 PUSH2 0x10AD JUMP JUMPDEST DUP2 MLOAD SWAP2 PUSH1 0x20 DUP4 ADD SWAP1 DUP4 DUP3 LT PUSH8 0xFFFFFFFFFFFFFFFF DUP4 GT OR PUSH2 0xA86 JUMPI PUSH2 0x66E SWAP5 SWAP6 POP MSTORE DUP4 DUP3 MSTORE PUSH1 0x24 CALLDATALOAD SWAP1 PUSH2 0x10CE JUMP JUMPDEST PUSH4 0x4E487B71 PUSH1 0xE0 SHL DUP6 MSTORE PUSH1 0x41 DUP7 MSTORE PUSH1 0x24 DUP6 REVERT JUMPDEST DUP2 MLOAD PUSH4 0x1B0E18F9 PUSH1 0xE1 SHL DUP2 MSTORE CALLER DUP2 DUP7 ADD MSTORE PUSH1 0x24 SWAP1 REVERT JUMPDEST SWAP1 POP CALLVALUE PUSH2 0x23B JUMPI DUP3 PUSH1 0x3 NOT CALLDATASIZE ADD SLT PUSH2 0x23B JUMPI PUSH2 0xAC9 PUSH2 0x1081 JUMP JUMPDEST PUSH1 0x5 SLOAD SWAP1 PUSH1 0xFF DUP3 PUSH1 0xA0 SHR AND ISZERO PUSH2 0xB11 JUMPI POP PUSH1 0xFF PUSH1 0xA0 SHL NOT AND PUSH1 0x5 SSTORE MLOAD CALLER DUP2 MSTORE PUSH32 0x5DB9EE0A495BF2E6FF9C91A7834C1BA4FDD244A5E8AA4E537BD38AEAE4B073AA SWAP1 PUSH1 0x20 SWAP1 LOG1 DUP1 RETURN JUMPDEST DUP3 MLOAD PUSH4 0x8DFC202B PUSH1 0xE0 SHL DUP2 MSTORE REVERT JUMPDEST DUP4 DUP4 CALLVALUE PUSH2 0x189 JUMPI DUP2 PUSH1 0x3 NOT CALLDATASIZE ADD SLT PUSH2 0x189 JUMPI PUSH1 0x6 SLOAD SWAP2 PUSH11 0x108B2A2C28029094000000 SWAP3 DUP4 SUB SWAP3 DUP4 GT PUSH2 0x2BE JUMPI PUSH1 0x20 DUP4 DUP4 MLOAD SWAP1 DUP2 MSTORE RETURN JUMPDEST POP POP CALLVALUE PUSH2 0x189 JUMPI DUP2 PUSH1 0x3 NOT CALLDATASIZE ADD SLT PUSH2 0x189 JUMPI PUSH1 0x20 SWAP1 MLOAD PUSH11 0x52B7D2DCC80CD2E4000000 DUP2 MSTORE RETURN JUMPDEST POP POP CALLVALUE PUSH2 0x189 JUMPI DUP2 PUSH1 0x3 NOT CALLDATASIZE ADD SLT PUSH2 0x189 JUMPI PUSH1 0x20 SWAP1 MLOAD PUSH1 0x12 DUP2 MSTORE RETURN JUMPDEST POP POP CALLVALUE PUSH2 0x189 JUMPI PUSH1 0x60 CALLDATASIZE PUSH1 0x3 NOT ADD SLT PUSH2 0x189 JUMPI PUSH1 0x20 SWAP1 PUSH2 0x417 PUSH2 0xBB8 PUSH2 0xDD1 JUMP JUMPDEST PUSH2 0xBC0 PUSH2 0xDEC JUMP JUMPDEST PUSH1 0x44 CALLDATALOAD SWAP2 PUSH2 0xBCF DUP4 CALLER DUP4 PUSH2 0xEC8 JUMP JUMPDEST PUSH2 0xF9B JUMP JUMPDEST POP POP CALLVALUE PUSH2 0x189 JUMPI DUP2 PUSH1 0x3 NOT CALLDATASIZE ADD SLT PUSH2 0x189 JUMPI PUSH1 0x20 SWAP1 PUSH1 0x2 SLOAD SWAP1 MLOAD SWAP1 DUP2 MSTORE RETURN JUMPDEST SWAP1 POP CALLVALUE PUSH2 0x23B JUMPI DUP2 PUSH1 0x3 NOT CALLDATASIZE ADD SLT PUSH2 0x23B JUMPI PUSH2 0xC0D PUSH2 0xDD1 JUMP JUMPDEST PUSH1 0x24 CALLDATALOAD SWAP1 CALLER ISZERO PUSH2 0xC86 JUMPI PUSH1 0x1 PUSH1 0x1 PUSH1 0xA0 SHL SUB AND SWAP2 DUP3 ISZERO PUSH2 0xC6F JUMPI POP DUP1 DUP4 PUSH1 0x20 SWAP6 CALLER DUP2 MSTORE PUSH1 0x1 DUP8 MSTORE DUP2 DUP2 KECCAK256 DUP6 DUP3 MSTORE DUP8 MSTORE KECCAK256 SSTORE DUP3 MLOAD SWAP1 DUP2 MSTORE PUSH32 0x8C5BE1E5EBEC7D5BD14F71427D1E84F3DD0314C0F7B2291E5B200AC8C7C3B925 DUP5 CALLER SWAP3 LOG3 MLOAD PUSH1 0x1 DUP2 MSTORE RETURN JUMPDEST DUP4 MLOAD PUSH4 0x4A1406B1 PUSH1 0xE1 SHL DUP2 MSTORE SWAP1 DUP2 ADD DUP6 SWAP1 MSTORE PUSH1 0x24 SWAP1 REVERT JUMPDEST DUP4 MLOAD PUSH4 0xE602DF05 PUSH1 0xE0 SHL DUP2 MSTORE DUP1 DUP5 ADD DUP7 SWAP1 MSTORE PUSH1 0x24 SWAP1 REVERT JUMPDEST DUP5 DUP5 CALLVALUE PUSH2 0x189 JUMPI DUP2 PUSH1 0x3 NOT CALLDATASIZE ADD SLT PUSH2 0x189 JUMPI DUP2 PUSH1 0x3 SLOAD SWAP3 PUSH1 0x1 DUP5 PUSH1 0x1 SHR SWAP2 PUSH1 0x1 DUP7 AND SWAP6 DUP7 ISZERO PUSH2 0xD87 JUMPI JUMPDEST PUSH1 0x20 SWAP7 DUP8 DUP6 LT DUP2 EQ PUSH2 0x51E JUMPI DUP9 SWAP10 POP SWAP7 DUP9 SWAP7 SWAP8 DUP6 DUP3 SWAP11 MSTORE SWAP2 DUP3 PUSH1 0x0 EQ PUSH2 0xD60 JUMPI POP POP PUSH1 0x1 EQ PUSH2 0xD04 JUMPI JUMPDEST POP POP POP PUSH2 0x495 SWAP3 SWAP2 PUSH2 0x486 SWAP2 SUB DUP6 PUSH2 0xE33 JUMP JUMPDEST SWAP2 SWAP1 DUP7 SWAP4 POP PUSH1 0x3 DUP4 MSTORE PUSH32 0xC2575A0E9E593C00F959F8C92F12DB2869C3395A3B0502D05E2516446F71F85B JUMPDEST DUP3 DUP5 LT PUSH2 0xD48 JUMPI POP POP POP DUP3 ADD ADD DUP2 PUSH2 0x486 PUSH2 0x495 PUSH2 0xCF1 JUMP JUMPDEST DUP1 SLOAD DUP5 DUP11 ADD DUP7 ADD MSTORE DUP9 SWAP6 POP DUP8 SWAP5 SWAP1 SWAP4 ADD SWAP3 DUP2 ADD PUSH2 0xD2F JUMP JUMPDEST PUSH1 0xFF NOT AND DUP8 DUP3 ADD MSTORE SWAP4 ISZERO ISZERO PUSH1 0x5 SHL DUP7 ADD SWAP1 SWAP4 ADD SWAP4 POP DUP5 SWAP3 POP PUSH2 0x486 SWAP2 POP PUSH2 0x495 SWAP1 POP PUSH2 0xCF1 JUMP JUMPDEST SWAP3 PUSH1 0x7F AND SWAP3 PUSH2 0xCC7 JUMP JUMPDEST SWAP2 SWAP1 DUP3 MLOAD SWAP3 DUP4 DUP3 MSTORE PUSH1 0x0 JUMPDEST DUP5 DUP2 LT PUSH2 0xDBD JUMPI POP POP DUP3 PUSH1 0x0 PUSH1 0x20 DUP1 SWAP5 SWAP6 DUP5 ADD ADD MSTORE PUSH1 0x1F DUP1 NOT SWAP2 ADD AND ADD ADD SWAP1 JUMP JUMPDEST PUSH1 0x20 DUP2 DUP4 ADD DUP2 ADD MLOAD DUP5 DUP4 ADD DUP3 ADD MSTORE ADD PUSH2 0xD9C JUMP JUMPDEST PUSH1 0x4 CALLDATALOAD SWAP1 PUSH1 0x1 PUSH1 0x1 PUSH1 0xA0 SHL SUB DUP3 AND DUP3 SUB PUSH2 0xDE7 JUMPI JUMP JUMPDEST PUSH1 0x0 DUP1 REVERT JUMPDEST PUSH1 0x24 CALLDATALOAD SWAP1 PUSH1 0x1 PUSH1 0x1 PUSH1 0xA0 SHL SUB DUP3 AND DUP3 SUB PUSH2 0xDE7 JUMPI JUMP JUMPDEST SWAP2 DUP2 PUSH1 0x1F DUP5 ADD SLT ISZERO PUSH2 0xDE7 JUMPI DUP3 CALLDATALOAD SWAP2 PUSH8 0xFFFFFFFFFFFFFFFF DUP4 GT PUSH2 0xDE7 JUMPI PUSH1 0x20 DUP1 DUP6 ADD SWAP5 DUP5 PUSH1 0x5 SHL ADD ADD GT PUSH2 0xDE7 JUMPI JUMP JUMPDEST SWAP1 PUSH1 0x1F DUP1 NOT SWAP2 ADD AND DUP2 ADD SWAP1 DUP2 LT PUSH8 0xFFFFFFFFFFFFFFFF DUP3 GT OR PUSH2 0xE55 JUMPI PUSH1 0x40 MSTORE JUMP JUMPDEST PUSH4 0x4E487B71 PUSH1 0xE0 SHL PUSH1 0x0 MSTORE PUSH1 0x41 PUSH1 0x4 MSTORE PUSH1 0x24 PUSH1 0x0 REVERT JUMPDEST SWAP2 SWAP1 DUP2 LT ISZERO PUSH2 0xE7B JUMPI PUSH1 0x5 SHL ADD SWAP1 JUMP JUMPDEST PUSH4 0x4E487B71 PUSH1 0xE0 SHL PUSH1 0x0 MSTORE PUSH1 0x32 PUSH1 0x4 MSTORE PUSH1 0x24 PUSH1 0x0 REVERT JUMPDEST SWAP2 SWAP1 DUP3 ADD DUP1 SWAP3 GT PUSH2 0xE9E JUMPI JUMP JUMPDEST PUSH4 0x4E487B71 PUSH1 0xE0 SHL PUSH1 0x0 MSTORE PUSH1 0x11 PUSH1 0x4 MSTORE PUSH1 0x24 PUSH1 0x0 REVERT JUMPDEST CALLDATALOAD PUSH1 0x1 PUSH1 0x1 PUSH1 0xA0 SHL SUB DUP2 AND DUP2 SUB PUSH2 0xDE7 JUMPI SWAP1 JUMP JUMPDEST SWAP2 PUSH1 0x1 DUP1 PUSH1 0xA0 SHL SUB DUP1 SWAP4 AND SWAP2 PUSH1 0x0 SWAP4 DUP4 DUP6 MSTORE PUSH1 0x1 PUSH1 0x20 MSTORE PUSH1 0x40 SWAP4 DUP5 DUP7 KECCAK256 SWAP2 DUP4 AND SWAP2 DUP3 DUP8 MSTORE PUSH1 0x20 MSTORE DUP5 DUP7 KECCAK256 SLOAD SWAP3 PUSH1 0x0 NOT DUP5 LT PUSH2 0xF07 JUMPI JUMPDEST POP POP POP POP POP POP POP JUMP JUMPDEST DUP5 DUP5 LT PUSH2 0xF6B JUMPI POP DUP1 ISZERO PUSH2 0xF53 JUMPI DUP2 ISZERO PUSH2 0xF3B JUMPI DUP6 MSTORE PUSH1 0x1 PUSH1 0x20 MSTORE DUP4 DUP6 KECCAK256 SWAP1 DUP6 MSTORE PUSH1 0x20 MSTORE SUB SWAP2 KECCAK256 SSTORE CODESIZE DUP1 DUP1 DUP1 DUP1 DUP1 DUP1 PUSH2 0xEFE JUMP JUMPDEST DUP5 MLOAD PUSH4 0x4A1406B1 PUSH1 0xE1 SHL DUP2 MSTORE PUSH1 0x4 DUP2 ADD DUP8 SWAP1 MSTORE PUSH1 0x24 SWAP1 REVERT JUMPDEST DUP5 MLOAD PUSH4 0xE602DF05 PUSH1 0xE0 SHL DUP2 MSTORE PUSH1 0x4 DUP2 ADD DUP8 SWAP1 MSTORE PUSH1 0x24 SWAP1 REVERT JUMPDEST DUP6 MLOAD PUSH4 0x7DC7A0D9 PUSH1 0xE1 SHL DUP2 MSTORE PUSH1 0x1 PUSH1 0x1 PUSH1 0xA0 SHL SUB SWAP2 SWAP1 SWAP2 AND PUSH1 0x4 DUP3 ADD MSTORE PUSH1 0x24 DUP2 ADD DUP5 SWAP1 MSTORE PUSH1 0x44 DUP2 ADD DUP6 SWAP1 MSTORE PUSH1 0x64 SWAP1 REVERT JUMPDEST SWAP2 PUSH1 0x1 PUSH1 0x1 PUSH1 0xA0 SHL SUB DUP1 DUP5 AND SWAP3 DUP4 ISZERO PUSH2 0x1068 JUMPI AND SWAP3 DUP4 ISZERO PUSH2 0x104F JUMPI PUSH2 0xFBE PUSH2 0x10AD JUMP JUMPDEST PUSH1 0x0 SWAP1 DUP4 DUP3 MSTORE DUP2 PUSH1 0x20 MSTORE PUSH1 0x40 DUP3 KECCAK256 SLOAD SWAP1 DUP4 DUP3 LT PUSH2 0x101D JUMPI POP SWAP2 PUSH1 0x40 DUP3 DUP3 PUSH32 0xDDF252AD1BE2C89B69C2B068FC378DAA952BA7F163C4A11628F55A4DF523B3EF SWAP6 DUP8 PUSH1 0x20 SWAP7 MSTORE DUP3 DUP7 MSTORE SUB DUP3 DUP3 KECCAK256 SSTORE DUP7 DUP2 MSTORE KECCAK256 DUP2 DUP2 SLOAD ADD SWAP1 SSTORE PUSH1 0x40 MLOAD SWAP1 DUP2 MSTORE LOG3 JUMP JUMPDEST PUSH1 0x40 MLOAD PUSH4 0x391434E3 PUSH1 0xE2 SHL DUP2 MSTORE PUSH1 0x1 PUSH1 0x1 PUSH1 0xA0 SHL SUB SWAP2 SWAP1 SWAP2 AND PUSH1 0x4 DUP3 ADD MSTORE PUSH1 0x24 DUP2 ADD SWAP2 SWAP1 SWAP2 MSTORE PUSH1 0x44 DUP2 ADD DUP4 SWAP1 MSTORE PUSH1 0x64 SWAP1 REVERT JUMPDEST PUSH1 0x40 MLOAD PUSH4 0xEC442F05 PUSH1 0xE0 SHL DUP2 MSTORE PUSH1 0x0 PUSH1 0x4 DUP3 ADD MSTORE PUSH1 0x24 SWAP1 REVERT JUMPDEST PUSH1 0x40 MLOAD PUSH4 0x4B637E8F PUSH1 0xE1 SHL DUP2 MSTORE PUSH1 0x0 PUSH1 0x4 DUP3 ADD MSTORE PUSH1 0x24 SWAP1 REVERT JUMPDEST PUSH1 0x5 SLOAD PUSH1 0x1 PUSH1 0x1 PUSH1 0xA0 SHL SUB AND CALLER SUB PUSH2 0x1095 JUMPI JUMP JUMPDEST PUSH1 0x40 MLOAD PUSH4 0x118CDAA7 PUSH1 0xE0 SHL DUP2 MSTORE CALLER PUSH1 0x4 DUP3 ADD MSTORE PUSH1 0x24 SWAP1 REVERT JUMPDEST PUSH1 0xFF PUSH1 0x5 SLOAD PUSH1 0xA0 SHR AND PUSH2 0x10BC JUMPI JUMP JUMPDEST PUSH1 0x40 MLOAD PUSH4 0xD93C0665 PUSH1 0xE0 SHL DUP2 MSTORE PUSH1 0x4 SWAP1 REVERT JUMPDEST SWAP1 PUSH2 0x10D7 PUSH2 0x1260 JUMP JUMPDEST PUSH1 0x2 SLOAD PUSH11 0x52B7D2DCC80CD2E4000000 SWAP1 DUP2 SUB SWAP1 DUP2 GT PUSH2 0xE9E JUMPI DUP1 DUP3 GT PUSH2 0x119B JUMPI POP PUSH1 0x6 SLOAD PUSH11 0x108B2A2C28029094000000 DUP2 DUP2 SUB SWAP1 DUP2 GT PUSH2 0xE9E JUMPI DUP1 DUP4 GT PUSH2 0x117D JUMPI POP SWAP1 PUSH2 0x1146 DUP2 PUSH32 0xDF92894DC4675A7333CAA5903B69CF5D8E8EC0D3F361C88207B6688E525703BB SWAP5 SWAP4 PUSH2 0xE91 JUMP JUMPDEST PUSH1 0x6 SSTORE PUSH2 0x1153 DUP2 DUP4 PUSH2 0x12BD JUMP JUMPDEST PUSH2 0x1178 PUSH1 0x40 MLOAD SWAP3 DUP4 SWAP3 DUP4 MSTORE PUSH1 0x40 PUSH1 0x20 DUP5 ADD MSTORE PUSH1 0x1 DUP1 PUSH1 0xA0 SHL SUB AND SWAP5 PUSH1 0x40 DUP4 ADD SWAP1 PUSH2 0xD91 JUMP JUMPDEST SUB SWAP1 LOG2 JUMP JUMPDEST DUP3 PUSH1 0x44 SWAP2 PUSH1 0x40 MLOAD SWAP2 PUSH4 0x3A7F1D1 PUSH1 0xE2 SHL DUP4 MSTORE PUSH1 0x4 DUP4 ADD MSTORE PUSH1 0x24 DUP3 ADD MSTORE REVERT JUMPDEST PUSH1 0x44 SWAP3 POP PUSH1 0x40 MLOAD SWAP2 PUSH4 0x7502C123 PUSH1 0xE1 SHL DUP4 MSTORE PUSH1 0x4 DUP4 ADD MSTORE PUSH1 0x24 DUP3 ADD MSTORE REVERT JUMPDEST SWAP1 PUSH1 0x1 PUSH1 0x1 PUSH1 0xA0 SHL SUB DUP3 AND SWAP1 DUP2 ISZERO PUSH2 0x1068 JUMPI PUSH2 0x11D3 PUSH2 0x10AD JUMP JUMPDEST PUSH1 0x0 SWAP3 DUP3 DUP5 MSTORE DUP4 PUSH1 0x20 MSTORE PUSH1 0x40 DUP5 KECCAK256 SLOAD SWAP1 DUP3 DUP3 LT PUSH2 0x122E JUMPI POP DUP2 PUSH32 0xDDF252AD1BE2C89B69C2B068FC378DAA952BA7F163C4A11628F55A4DF523B3EF SWAP3 PUSH1 0x20 SWAP3 DUP6 DUP8 MSTORE DUP7 DUP5 MSTORE SUB PUSH1 0x40 DUP7 KECCAK256 SSTORE DUP1 PUSH1 0x2 SLOAD SUB PUSH1 0x2 SSTORE PUSH1 0x40 MLOAD SWAP1 DUP2 MSTORE LOG3 JUMP JUMPDEST PUSH1 0x40 MLOAD PUSH4 0x391434E3 PUSH1 0xE2 SHL DUP2 MSTORE PUSH1 0x1 PUSH1 0x1 PUSH1 0xA0 SHL SUB SWAP2 SWAP1 SWAP2 AND PUSH1 0x4 DUP3 ADD MSTORE PUSH1 0x24 DUP2 ADD SWAP2 SWAP1 SWAP2 MSTORE PUSH1 0x44 DUP2 ADD DUP3 SWAP1 MSTORE PUSH1 0x64 SWAP1 REVERT JUMPDEST PUSH1 0x7 DUP1 SLOAD SWAP1 PUSH4 0x1E13380 SWAP2 DUP3 DUP2 ADD DUP1 SWAP2 GT PUSH2 0xE9E JUMPI TIMESTAMP LT ISZERO PUSH2 0x1280 JUMPI POP POP JUMP JUMPDEST SWAP1 SWAP2 JUMPDEST DUP2 SLOAD DUP4 DUP2 ADD DUP1 SWAP2 GT PUSH2 0x12A8 JUMPI DUP1 TIMESTAMP LT PUSH2 0x129D JUMPI DUP3 SSTORE PUSH2 0x1283 JUMP JUMPDEST POP SWAP2 POP POP PUSH1 0x0 PUSH1 0x6 SSTORE JUMP JUMPDEST PUSH1 0x24 PUSH1 0x0 PUSH4 0x4E487B71 PUSH1 0xE0 SHL DUP2 MSTORE PUSH1 0x11 PUSH1 0x4 MSTORE REVERT JUMPDEST PUSH1 0x1 PUSH1 0x1 PUSH1 0xA0 SHL SUB AND SWAP1 DUP2 ISZERO PUSH2 0x104F JUMPI PUSH32 0xDDF252AD1BE2C89B69C2B068FC378DAA952BA7F163C4A11628F55A4DF523B3EF PUSH1 0x20 PUSH1 0x0 SWAP3 PUSH2 0x12FB PUSH2 0x10AD JUMP JUMPDEST PUSH2 0x1307 DUP2 PUSH1 0x2 SLOAD PUSH2 0xE91 JUMP JUMPDEST PUSH1 0x2 SSTORE DUP5 DUP5 MSTORE DUP4 DUP3 MSTORE PUSH1 0x40 DUP5 KECCAK256 DUP2 DUP2 SLOAD ADD SWAP1 SSTORE PUSH1 0x40 MLOAD SWAP1 DUP2 MSTORE LOG3 JUMP INVALID LOG2 PUSH5 0x6970667358 0x22 SLT KECCAK256 BALANCE PUSH20 0x15D56E1F4F793B3BD99829807D109BDFFB85AB37 0xD1 DUP12 0xEE MLOAD 0xDB 0xF8 KECCAK256 ORIGIN CREATE2 DELEGATECALL PUSH5 0x736F6C6343 STOP ADDMOD XOR STOP CALLER "
        },
        "methodIdentifiers": {
          "ANNUAL_RELEASE_CAP()": "c4a546ba",
          "BATCH_MAX()": "ffb25600",
          "MAX_SUPPLY()": "32cb6b0c",
          "allowance(address,address)": "dd62ed3e",
          "approve(address,uint256)": "095ea7b3",
          "balanceOf(address)": "70a08231",
          "batchMint(address[],uint256[])": "68573107",
          "burn(uint256)": "42966c68",
          "burnFrom(address,uint256)": "79cc6790",
          "currentYearEndsAt()": "6c8bea03",
          "decimals()": "313ce567",
          "isMinter(address)": "aa271e1a",
          "mint(address,uint256)": "40c10f19",
          "mintWithReason(address,uint256,string)": "7ca48513",
          "name()": "06fdde03",
          "owner()": "8da5cb5b",
          "pause()": "8456cb59",
          "paused()": "5c975abb",
          "remainingAnnualCap()": "34cdea7f",
          "remainingSupply()": "da0239a6",
          "renounceOwnership()": "715018a6",
          "setMinter(address,bool)": "cf456ae7",
          "symbol()": "95d89b41",
          "totalMintedThisYear()": "af3a4f58",
          "totalSupply()": "18160ddd",
          "transfer(address,uint256)": "a9059cbb",
          "transferFrom(address,address,uint256)": "23b872dd",
          "transferOwnership(address)": "f2fde38b",
          "unpause()": "3f4ba83a",
          "yearStartTimestamp()": "fcf5599c"
        }
      }
    }
  }
}