{
  "_format": "hh-sol-artifact-1",
  "contractName": "FarmToken",
  "sourceName": "contracts/FarmToken.sol",
  "abi": [
    {
      "inputs": [
        {
          "internalType": "address",
          "name": "initialOwner",
          "type": "address"
        }
      ],
      "stateMutability": "nonpayable",
      "type": "constructor"
    },
    {
      "inputs": [
        {
          "internalType": "uint256",
          "name": "requested",
          "type": "uint256"
        },
        {
          "internalType": "uint256",
          "name": "remaining",
          "type": "uint256"
        }
      ],
      "name": "AnnualCapExceeded",
      "type": "error"
    },
    {
      "inputs": [
        {
          "internalType": "uint256",
          "name": "tosLen",
          "type": "uint256"
        },
        {
          "internalType": "uint256",
          "name": "amountsLen",
          "type": "uint256"
        }
      ],
      "name": "ArrayLengthMismatch",
      "type": "error"
    },
    {
      "inputs": [
        {
          "internalType": "uint256",
          "name": "length",
          "type": "uint256"
        },
        {
          "internalType": "uint256",
          "name": "max",
          "type": "uint256"
        }
      ],
      "name": "BatchTooLarge",
      "type": "error"
    },
    {
      "inputs": [
        {
          "internalType": "address",
          "name": "spender",
          "type": "address"
        },
        {
          "internalType": "uint256",
          "name": "allowance",
          "type": "uint256"
        },
        {
          "internalType": "uint256",
          "name": "needed",
          "type": "uint256"
        }
      ],
      "name": "ERC20InsufficientAllowance",
      "type": "error"
    },
    {
      "inputs": [
        {
          "internalType": "address",
          "name": "sender",
          "type": "address"
        },
        {
          "internalType": "uint256",
          "name": "balance",
          "type": "uint256"
        },
        {
          "internalType": "uint256",
          "name": "needed",
          "type": "uint256"
        }
      ],
      "name": "ERC20InsufficientBalance",
      "type": "error"
    },
    {
      "inputs": [
        {
          "internalType": "address",
          "name": "approver",
          "type": "address"
        }
      ],
      "name": "ERC20InvalidApprover",
      "type": "error"
    },
    {
      "inputs": [
        {
          "internalType": "address",
          "name": "receiver",
          "type": "address"
        }
      ],
      "name": "ERC20InvalidReceiver",
      "type": "error"
    },
    {
      "inputs": [
        {
          "internalType": "address",
          "name": "sender",
          "type": "address"
        }
      ],
      "name": "ERC20InvalidSender",
      "type": "error"
    },
    {
      "inputs": [
        {
          "internalType": "address",
          "name": "spender",
          "type": "address"
        }
      ],
      "name": "ERC20InvalidSpender",
      "type": "error"
    },
    {
      "inputs": [],
      "name": "EmptyBatch",
      "type": "error"
    },
    {
      "inputs": [],
      "name": "EnforcedPause",
      "type": "error"
    },
    {
      "inputs": [],
      "name": "ExpectedPause",
      "type": "error"
    },
    {
      "inputs": [],
      "name": "InvalidMinterAddress",
      "type": "error"
    },
    {
      "inputs": [
        {
          "internalType": "uint256",
          "name": "requested",
          "type": "uint256"
        },
        {
          "internalType": "uint256",
          "name": "remaining",
          "type": "uint256"
        }
      ],
      "name": "MaxSupplyExceeded",
      "type": "error"
    },
    {
      "inputs": [
        {
          "internalType": "address",
          "name": "caller",
          "type": "address"
        }
      ],
      "name": "NotMinter",
      "type": "error"
    },
    {
      "inputs": [
        {
          "internalType": "address",
          "name": "owner",
          "type": "address"
        }
      ],
      "name": "OwnableInvalidOwner",
      "type": "error"
    },
    {
      "inputs": [
        {
          "internalType": "address",
          "name": "account",
          "type": "address"
        }
      ],
      "name": "OwnableUnauthorizedAccount",
      "type": "error"
    },
    {
      "anonymous": false,
      "inputs": [
        {
          "indexed": true,
          "internalType": "address",
          "name": "owner",
          "type": "address"
        },
        {
          "indexed": true,
          "internalType": "address",
          "name": "spender",
          "type": "address"
        },
        {
          "indexed": false,
          "internalType": "uint256",
          "name": "value",
          "type": "uint256"
        }
      ],
      "name": "Approval",
      "type": "event"
    },
    {
      "anonymous": false,
      "inputs": [
        {
          "indexed": true,
          "internalType": "address",
          "name": "minter",
          "type": "address"
        },
        {
          "indexed": false,
          "internalType": "bool",
          "name": "status",
          "type": "bool"
        }
      ],
      "name": "MinterUpdated",
      "type": "event"
    },
    {
      "anonymous": false,
      "inputs": [
        {
          "indexed": true,
          "internalType": "address",
          "name": "previousOwner",
          "type": "address"
        },
        {
          "indexed": true,
          "internalType": "address",
          "name": "newOwner",
          "type": "address"
        }
      ],
      "name": "OwnershipTransferred",
      "type": "event"
    },
    {
      "anonymous": false,
      "inputs": [
        {
          "indexed": false,
          "internalType": "address",
          "name": "account",
          "type": "address"
        }
      ],
      "name": "Paused",
      "type": "event"
    },
    {
      "anonymous": false,
      "inputs": [
        {
          "indexed": true,
          "internalType": "address",
          "name": "to",
          "type": "address"
        },
        {
          "indexed": false,
          "internalType": "uint256",
          "name": "amount",
          "type": "uint256"
        },
        {
          "indexed": false,
          "internalType": "string",
          "name": "reason",
          "type": "string"
        }
      ],
      "name": "TokenMinted",
      "type": "event"
    },
    {
      "anonymous": false,
      "inputs": [
        {
          "indexed": true,
          "internalType": "address",
          "name": "from",
          "type": "address"
        },
        {
          "indexed": true,
          "internalType": "address",
          "name": "to",
          "type": "address"
        },
        {
          "indexed": false,
          "internalType": "uint256",
          "name": "value",
          "type": "uint256"
        }
      ],
      "name": "Transfer",
      "type": "event"
    },
    {
      "anonymous": false,
      "inputs": [
        {
          "indexed": false,
          "internalType": "address",
          "name": "account",
          "type": "address"
        }
      ],
      "name": "Unpaused",
      "type": "event"
    },
    {
      "inputs": [],
      "name": "ANNUAL_RELEASE_CAP",
      "outputs": [
        {
          "internalType": "uint256",
          "name": "",
          "type": "uint256"
        }
      ],
      "stateMutability": "view",
      "type": "function"
    },
    {
      "inputs": [],
      "name": "BATCH_MAX",
      "outputs": [
        {
          "internalType": "uint256",
          "name": "",
          "type": "uint256"
        }
      ],
      "stateMutability": "view",
      "type": "function"
    },
    {
      "inputs": [],
      "name": "MAX_SUPPLY",
      "outputs": [
        {
          "internalType": "uint256",
          "name": "",
          "type": "uint256"
        }
      ],
      "stateMutability": "view",
      "type": "function"
    },
    {
      "inputs": [
        {
          "internalType": "address",
          "name": "owner",
          "type": "address"
        },
        {
          "internalType": "address",
          "name": "spender",
          "type": "address"
        }
      ],
      "name": "allowance",
      "outputs": [
        {
          "internalType": "uint256",
          "name": "",
          "type": "uint256"
        }
      ],
      "stateMutability": "view",
      "type": "function"
    },
    {
      "inputs": [
        {
          "internalType": "address",
          "name": "spender",
          "type": "address"
        },
        {
          "internalType": "uint256",
          "name": "value",
          "type": "uint256"
        }
      ],
      "name": "approve",
      "outputs": [
        {
          "internalType": "bool",
          "name": "",
          "type": "bool"
        }
      ],
      "stateMutability": "nonpayable",
      "type": "function"
    },
    {
      "inputs": [
        {
          "internalType": "address",
          "name": "account",
          "type": "address"
        }
      ],
      "name": "balanceOf",
      "outputs": [
        {
          "internalType": "uint256",
          "name": "",
          "type": "uint256"
        }
      ],
      "stateMutability": "view",
      "type": "function"
    },
    {
      "inputs": [
        {
          "internalType": "address[]",
          "name": "tos",
          "type": "address[]"
        },
        {
          "internalType": "uint256[]",
          "name": "amounts",
          "type": "uint256[]"
        }
      ],
      "name": "batchMint",
      "outputs": [],
      "stateMutability": "nonpayable",
      "type": "function"
    },
    {
      "inputs": [
        {
          "internalType": "uint256",
          "name": "value",
          "type": "uint256"
        }
      ],
      "name": "burn",
      "outputs": [],
      "stateMutability": "nonpayable",
      "type": "function"
    },
    {
      "inputs": [
        {
          "internalType": "address",
          "name": "account",
          "type": "address"
        },
        {
          "internalType": "uint256",
          "name": "value",
          "type": "uint256"
        }
      ],
      "name": "burnFrom",
      "outputs": [],
      "stateMutability": "nonpayable",
      "type": "function"
    },
    {
      "inputs": [],
      "name": "currentYearEndsAt",
      "outputs": [
        {
          "internalType": "uint256",
          "name": "",
          "type": "uint256"
        }
      ],
      "stateMutability": "view",
      "type": "function"
    },
    {
      "inputs": [],
      "name": "decimals",
      "outputs": [
        {
          "internalType": "uint8",
          "name": "",
          "type": "uint8"
        }
      ],
      "stateMutability": "view",
      "type": "function"
    },
    {
      "inputs": [
        {
          "internalType": "address",
          "name": "",
          "type": "address"
        }
      ],
      "name": "isMinter",
      "outputs": [
        {
          "internalType": "bool",
          "name": "",
          "type": "bool"
        }
      ],
      "stateMutability": "view",
      "type": "function"
    },
    {
      "inputs": [
        {
          "internalType": "address",
          "name": "to",
          "type": "address"
        },
        {
          "internalType": "uint256",
          "name": "amount",
          "type": "uint256"
        }
      ],
      "name": "mint",
      "outputs": [],
      "stateMutability": "nonpayable",
      "type": "function"
    },
    {
      "inputs": [
        {
          "internalType": "address",
          "name": "to",
          "type": "address"
        },
        {
          "internalType": "uint256",
          "name": "amount",
          "type": "uint256"
        },
        {
          "internalType": "string",
          "name": "reason",
          "type": "string"
        }
      ],
      "name": "mintWithReason",
      "outputs": [],
      "stateMutability": "nonpayable",
      "type": "function"
    },
    {
      "inputs": [],
      "name": "name",
      "outputs": [
        {
          "internalType": "string",
          "name": "",
          "type": "string"
        }
      ],
      "stateMutability": "view",
      "type": "function"
    },
    {
      "inputs": [],
      "name": "owner",
      "outputs": [
        {
          "internalType": "address",
          "name": "",
          "type": "address"
        }
      ],
      "stateMutability": "view",
      "type": "function"
    },
    {
      "inputs": [],
      "name": "pause",
      "outputs": [],
      "stateMutability": "nonpayable",
      "type": "function"
    },
    {
      "inputs": [],
      "name": "paused",
      "outputs": [
        {
          "internalType": "bool",
          "name": "",
          "type": "bool"
        }
      ],
      "stateMutability": "view",
      "type": "function"
    },
    {
      "inputs": [],
      "name": "remainingAnnualCap",
      "outputs": [
        {
          "internalType": "uint256",
          "name": "",
          "type": "uint256"
        }
      ],
      "stateMutability": "view",
      "type": "function"
    },
    {
      "inputs": [],
      "name": "remainingSupply",
      "outputs": [
        {
          "internalType": "uint256",
          "name": "",
          "type": "uint256"
        }
      ],
      "stateMutability": "view",
      "type": "function"
    },
    {
      "inputs": [],
      "name": "renounceOwnership",
      "outputs": [],
      "stateMutability": "nonpayable",
      "type": "function"
    },
    {
      "inputs": [
        {
          "internalType": "address",
          "name": "minter",
          "type": "address"
        },
        {
          "internalType": "bool",
          "name": "status",
          "type": "bool"
        }
      ],
      "name": "setMinter",
      "outputs": [],
      "stateMutability": "nonpayable",
      "type": "function"
    },
    {
      "inputs": [],
      "name": "symbol",
      "outputs": [
        {
          "internalType": "string",
          "name": "",
          "type": "string"
        }
      ],
      "stateMutability": "view",
      "type": "function"
    },
    {
      "inputs": [],
      "name": "totalMintedThisYear",
      "outputs": [
        {
          "internalType": "uint256",
          "name": "",
          "type": "uint256"
        }
      ],
      "stateMutability": "view",
      "type": "function"
    },
    {
      "inputs": [],
      "name": "totalSupply",
      "outputs": [
        {
          "internalType": "uint256",
          "name": "",
          "type": "uint256"
        }
      ],
      "stateMutability": "view",
      "type": "function"
    },
    {
      "inputs": [
        {
          "internalType": "address",
          "name": "to",
          "type": "address"
        },
        {
          "internalType": "uint256",
          "name": "value",
          "type": "uint256"
        }
      ],
      "name": "transfer",
      "outputs": [
        {
          "internalType": "bool",
          "name": "",
          "type": "bool"
        }
      ],
      "stateMutability": "nonpayable",
      "type": "function"
    },
    {
      "inputs": [
        {
          "internalType": "address",
          "name": "from",
          "type": "address"
        },
        {
          "internalType": "address",
          "name": "to",
          "type": "address"
        },
        {
          "internalType": "uint256",
          "name": "value",
          "type": "uint256"
        }
      ],
      "name": "transferFrom",
      "outputs": [
        {
          "internalType": "bool",
          "name": "",
          "type": "bool"
        }
      ],
      "stateMutability": "nonpayable",
      "type": "function"
    },
    {
      "inputs": [
        {
          "internalType": "address",
          "name": "newOwner",
          "type": "address"
        }
      ],
      "name": "transferOwnership",
      "outputs": [],
      "stateMutability": "nonpayable",
      "type": "function"
    },
    {
      "inputs": [],
      "name": "unpause",
      "outputs": [],
      "stateMutability": "nonpayable",
      "type": "function"
    },
    {
      "inputs": [],
      "name": "yearStartTimestamp",
      "outputs": [
        {
          "internalType": "uint256",
          "name": "",
          "type": "uint256"
        }
      ],
      "stateMutability": "view",
      "type": "function"
    }
  ],
  "bytecode": "0x608034620003a057601f906001600160401b0390601f196200171f388190038581018316840185811185821017620002a457849282916040528339602093849181010312620003a057516001600160a01b03948582169491859003620003a05762000069620003a5565b600a8152692330b936902a37b5b2b760b11b8582015262000089620003a5565b916003928381526246544b60e81b878201528251858111620002a45784546001948582811c9216801562000395575b8a8310146200037f57818584931162000329575b508990858311600114620002c657600092620002ba575b505060001982871b1c191690841b1784555b8051948511620002a45760049687548481811c9116801562000299575b82821014620002845783811162000239575b5080928611600114620001cd575084955090849291600095620001c1575b50501b92600019911b1c19161781555b8115620001a95750600580546001600160a01b03198116831790915560405192167f8be0079c531659141344cd1fd0a4f28419497f9722a3daafe3b4186f6b6457e0600080a3426007556113599081620003c68239f35b602490600060405191631e4fbdf760e01b8352820152fd5b01519350388062000142565b939295859081168860005285600020956000905b898383106200021e575050501062000203575b50505050811b01815562000152565b01519060f884600019921b161c1916905538808080620001f4565b858701518955909701969485019488935090810190620001e1565b88600052816000208480890160051c820192848a106200027a575b0160051c019085905b8281106200026d57505062000124565b600081550185906200025d565b9250819262000254565b602289634e487b7160e01b6000525260246000fd5b90607f169062000112565b634e487b7160e01b600052604160045260246000fd5b015190503880620000e3565b908987941691886000528b6000209260005b8d828210620003125750508411620002f9575b505050811b018455620000f5565b015160001983891b60f8161c19169055388080620002eb565b8385015186558a97909501949384019301620002d8565b90915086600052896000208580850160051c8201928c861062000375575b918891869594930160051c01915b82811062000365575050620000cc565b6000815585945088910162000355565b9250819262000347565b634e487b7160e01b600052602260045260246000fd5b91607f1691620000b8565b600080fd5b60408051919082016001600160401b03811183821017620002a45760405256fe608060408181526004918236101561001657600080fd5b600092833560e01c91826306fdde0314610c9d57508163095ea7b314610bf357816318160ddd14610bd457816323b872dd14610b97578163313ce56714610b7b57816332cb6b0c14610b5557816334cdea7f14610b1f5781633f4ba83a14610aaf57816340c10f1914610a2257816342966c6814610a045781635c975abb146109dd578163685731071461077a5781636c8bea031461074c57816370a0823114610715578163715018a6146106b857816379cc6790146106885781637ca48513146105c85781638456cb59146105675781638da5cb5b1461053e57816395d89b411461041e578163a9059cbb146103ed578163aa271e1a146103af578163af3a4f5814610390578163c4a546ba1461036a578163cf456ae7146102d1578163da0239a614610288578163dd62ed3e1461023f578163f2fde38b146101ab57508063fcf5599c1461018d5763ffb256001461016f57600080fd5b346101895781600319360112610189576020905160c88152f35b5080fd5b50346101895781600319360112610189576020906007549051908152f35b90503461023b57602036600319011261023b576101c6610dd1565b906101cf611081565b6001600160a01b03918216928315610225575050600554826bffffffffffffffffffffffff60a01b821617600555167f8be0079c531659141344cd1fd0a4f28419497f9722a3daafe3b4186f6b6457e08380a380f35b51631e4fbdf760e01b8152908101849052602490fd5b8280fd5b5050346101895780600319360112610189578060209261025d610dd1565b610265610dec565b6001600160a01b0391821683526001865283832091168252845220549051908152f35b838334610189578160031936011261018957600254916a52b7d2dcc80cd2e40000009283039283116102be576020838351908152f35b634e487b7160e01b815260118452602490fd5b9190503461023b578060031936011261023b576102ec610dd1565b906024359182151580930361036657610303611081565b6001600160a01b031692831561035857507fb21afb9ce9be0a676f8f317ff0ca072fb89a4f8ce2d1b6fe80f8755c14f1cb19916020918486526008835280862060ff1981541660ff841617905551908152a280f35b9051634d489fcd60e11b8152fd5b8480fd5b505034610189578160031936011261018957602090516a108b2a2c280290940000008152f35b5050346101895781600319360112610189576020906006549051908152f35b5050346101895760203660031901126101895760209160ff9082906001600160a01b036103da610dd1565b1681526008855220541690519015158152f35b50503461018957806003193601126101895760209061041761040d610dd1565b6024359033610f9b565b5160018152f35b82843461053b578060031936011261053b578151918184549260018460011c9160018616958615610531575b602096878510811461051e579087899a92868b999a9b5291826000146104f4575050600114610499575b858861049589610486848a0385610e33565b51928284938452830190610d91565b0390f35b815286935091907f8a35acfbc15ff81a39ae7d344fd709f28e8600b4aa8c65c6b64bfe7fe36bd19b5b8284106104dc575050508201018161048661049588610474565b8054848a0186015288955087949093019281016104c2565b60ff19168882015294151560051b8701909401945085935061048692506104959150899050610474565b634e487b7160e01b835260228a52602483fd5b92607f169261044a565b80fd5b50503461018957816003193601126101895760055490516001600160a01b039091168152602090f35b50503461018957816003193601126101895760207f62e78cea01bee320cd4e420270b5ea74000d11b0c9f74754ebdbfc544b05a258916105a5611081565b6105ad6110ad565b6005805460ff60a01b1916600160a01b17905551338152a180f35b83915034610189576060366003190112610189576105e4610dd1565b6044359167ffffffffffffffff908184116103665736602385011215610366578381013591821161036657366024838601011161036657338552600860205260ff86862054161561067157509260208461066e95602484986106446110ad565b5196610659601f8401601f1916860189610e33565b828852018387013784010152602435906110ce565b80f35b602490865190631b0e18f960e11b82523390820152fd5b5050346101895736600319011261053b5761066e6106a4610dd1565b602435906106b3823383610ec8565b6111b9565b833461053b578060031936011261053b576106d1611081565b600580546001600160a01b0319811690915581906001600160a01b03167f8be0079c531659141344cd1fd0a4f28419497f9722a3daafe3b4186f6b6457e08280a380f35b5050346101895760203660031901126101895760209181906001600160a01b0361073d610dd1565b16815280845220549051908152f35b838334610189578160031936011261018957600754916301e1338083018093116102be576020838351908152f35b90503461023b578160031936011261023b5767ffffffffffffffff908035828111610366576107ac9036908301610e02565b60249491949384359081116109d9576107c89036908501610e02565b919093338852602095600860205260ff858a205416156109c4576107ea6110ad565b82156109b55783830361099b5760c8831161098057610807611260565b8891895b85811061096057506002546a52b7d2dcc80cd2e400000090810390811161094e578084116109355750600654916a108b2a2c280290940000009083820391821161092457818511610909575050509061086391610e91565b600655865b818110610873578780f35b8061089e61088c610887600194868c610e6b565b610eb4565b61089783878a610e6b565b35906112bd565b6108ac61088782858b610e6b565b7fdf92894dc4675a7333caa5903b69cf5d8e8ec0d3f361c88207b6688e525703bb60806108da84888b610e6b565b35928851938452888b850152600589850152640c4c2e8c6d60db1b6060850152858060a01b031692a201610868565b87516303a7f1d160e21b815292830185905282015260449150fd5b634e487b7160e01b8c52601183528bfd5b60449284885193637502c12360e11b8552840152820152fd5b50634e487b7160e01b8a526011905288fd5b9261097960019161097286898c610e6b565b3590610e91565b930161080b565b60c89060449386519363bb1cb70b60e01b8552840152820152fd5b9092916044945193631f4bb7c160e31b8552840152820152fd5b50835163c2e5347d60e01b8152fd5b90845190631b0e18f960e11b82523390820152fd5b8680fd5b50503461018957816003193601126101895760209060ff60055460a01c1690519015158152f35b8390346101895760203660031901126101895761066e9035336111b9565b838334610189578060031936011261018957610a3c610dd1565b338352600860205260ff828420541615610a9957610a586110ad565b815191602083019083821067ffffffffffffffff831117610a865761066e94955052838252602435906110ce565b634e487b7160e01b855260418652602485fd5b8151631b0e18f960e11b81523381860152602490fd5b90503461023b578260031936011261023b57610ac9611081565b6005549060ff8260a01c1615610b11575060ff60a01b1916600555513381527f5db9ee0a495bf2e6ff9c91a7834c1ba4fdd244a5e8aa4e537bd38aeae4b073aa90602090a180f35b8251638dfc202b60e01b8152fd5b838334610189578160031936011261018957600654916a108b2a2c280290940000009283039283116102be576020838351908152f35b505034610189578160031936011261018957602090516a52b7d2dcc80cd2e40000008152f35b5050346101895781600319360112610189576020905160128152f35b50503461018957606036600319011261018957602090610417610bb8610dd1565b610bc0610dec565b60443591610bcf833383610ec8565b610f9b565b5050346101895781600319360112610189576020906002549051908152f35b90503461023b578160031936011261023b57610c0d610dd1565b602435903315610c86576001600160a01b0316918215610c6f57508083602095338152600187528181208582528752205582519081527f8c5be1e5ebec7d5bd14f71427d1e84f3dd0314c0f7b2291e5b200ac8c7c3b925843392a35160018152f35b8351634a1406b160e11b8152908101859052602490fd5b835163e602df0560e01b8152808401869052602490fd5b848434610189578160031936011261018957816003549260018460011c9160018616958615610d87575b602096878510811461051e578899509688969785829a529182600014610d60575050600114610d04575b5050506104959291610486910385610e33565b9190869350600383527fc2575a0e9e593c00f959f8c92f12db2869c3395a3b0502d05e2516446f71f85b5b828410610d485750505082010181610486610495610cf1565b8054848a018601528895508794909301928101610d2f565b60ff19168782015293151560051b8601909301935084925061048691506104959050610cf1565b92607f1692610cc7565b919082519283825260005b848110610dbd575050826000602080949584010152601f8019910116010190565b602081830181015184830182015201610d9c565b600435906001600160a01b0382168203610de757565b600080fd5b602435906001600160a01b0382168203610de757565b9181601f84011215610de75782359167ffffffffffffffff8311610de7576020808501948460051b010111610de757565b90601f8019910116810190811067ffffffffffffffff821117610e5557604052565b634e487b7160e01b600052604160045260246000fd5b9190811015610e7b5760051b0190565b634e487b7160e01b600052603260045260246000fd5b91908201809211610e9e57565b634e487b7160e01b600052601160045260246000fd5b356001600160a01b0381168103610de75790565b9160018060a01b038093169160009383855260016020526040938486209183169182875260205284862054926000198410610f07575b50505050505050565b848410610f6b57508015610f53578115610f3b57855260016020528385209085526020520391205538808080808080610efe565b8451634a1406b160e11b815260048101879052602490fd5b845163e602df0560e01b815260048101879052602490fd5b8551637dc7a0d960e11b81526001600160a01b039190911660048201526024810184905260448101859052606490fd5b916001600160a01b03808416928315611068571692831561104f57610fbe6110ad565b6000908382528160205260408220549083821061101d575091604082827fddf252ad1be2c89b69c2b068fc378daa952ba7f163c4a11628f55a4df523b3ef958760209652828652038282205586815220818154019055604051908152a3565b60405163391434e360e21b81526001600160a01b03919091166004820152602481019190915260448101839052606490fd5b60405163ec442f0560e01b815260006004820152602490fd5b604051634b637e8f60e11b815260006004820152602490fd5b6005546001600160a01b0316330361109557565b60405163118cdaa760e01b8152336004820152602490fd5b60ff60055460a01c166110bc57565b60405163d93c066560e01b8152600490fd5b906110d7611260565b6002546a52b7d2dcc80cd2e4000000908103908111610e9e5780821161119b57506006546a108b2a2c28029094000000818103908111610e9e5780831161117d575090611146817fdf92894dc4675a7333caa5903b69cf5d8e8ec0d3f361c88207b6688e525703bb9493610e91565b60065561115381836112bd565b61117860405192839283526040602084015260018060a01b0316946040830190610d91565b0390a2565b82604491604051916303a7f1d160e21b835260048301526024820152fd5b6044925060405191637502c12360e11b835260048301526024820152fd5b906001600160a01b038216908115611068576111d36110ad565b6000928284528360205260408420549082821061122e5750817fddf252ad1be2c89b69c2b068fc378daa952ba7f163c4a11628f55a4df523b3ef926020928587528684520360408620558060025403600255604051908152a3565b60405163391434e360e21b81526001600160a01b03919091166004820152602481019190915260448101829052606490fd5b60078054906301e1338091828101809111610e9e57421015611280575050565b90915b81548381018091116112a85780421061129d578255611283565b509150506000600655565b60246000634e487b7160e01b81526011600452fd5b6001600160a01b031690811561104f577fddf252ad1be2c89b69c2b068fc378daa952ba7f163c4a11628f55a4df523b3ef60206000926112fb6110ad565b61130781600254610e91565b60025584845283825260408420818154019055604051908152a356fea2646970667358221220317315d56e1f4f793b3bd99829807d109bdffb85ab37d18bee51dbf82032f5f464736f6c63430008180033",
  "linkReferences": {},
  "deployedLinkReferences": {}
}